{
  "address": "0xd77cFfca19aec21aca9F0E38743740EfD548b2A4",
  "abi": [
    {
      "inputs": [],
      "stateMutability": "nonpayable",
      "type": "constructor"
    },
    {
      "anonymous": false,
      "inputs": [
        {
          "indexed": true,
          "internalType": "address",
          "name": "owner",
          "type": "address"
        },
        {
          "indexed": true,
          "internalType": "address",
          "name": "spender",
          "type": "address"
        },
        {
          "indexed": false,
          "internalType": "uint256",
          "name": "value",
          "type": "uint256"
        }
      ],
      "name": "Approval",
      "type": "event"
    },
    {
      "anonymous": false,
      "inputs": [
        {
          "indexed": true,
          "internalType": "address",
          "name": "from",
          "type": "address"
        },
        {
          "indexed": true,
          "internalType": "address",
          "name": "to",
          "type": "address"
        },
        {
          "indexed": false,
          "internalType": "uint256",
          "name": "value",
          "type": "uint256"
        }
      ],
      "name": "Transfer",
      "type": "event"
    },
    {
      "inputs": [
        {
          "internalType": "address",
          "name": "owner",
          "type": "address"
        },
        {
          "internalType": "address",
          "name": "spender",
          "type": "address"
        }
      ],
      "name": "allowance",
      "outputs": [
        {
          "internalType": "uint256",
          "name": "",
          "type": "uint256"
        }
      ],
      "stateMutability": "view",
      "type": "function"
    },
    {
      "inputs": [
        {
          "internalType": "address",
          "name": "spender",
          "type": "address"
        },
        {
          "internalType": "uint256",
          "name": "amount",
          "type": "uint256"
        }
      ],
      "name": "approve",
      "outputs": [
        {
          "internalType": "bool",
          "name": "",
          "type": "bool"
        }
      ],
      "stateMutability": "nonpayable",
      "type": "function"
    },
    {
      "inputs": [
        {
          "internalType": "address",
          "name": "account",
          "type": "address"
        }
      ],
      "name": "balanceOf",
      "outputs": [
        {
          "internalType": "uint256",
          "name": "",
          "type": "uint256"
        }
      ],
      "stateMutability": "view",
      "type": "function"
    },
    {
      "inputs": [],
      "name": "decimals",
      "outputs": [
        {
          "internalType": "uint8",
          "name": "",
          "type": "uint8"
        }
      ],
      "stateMutability": "view",
      "type": "function"
    },
    {
      "inputs": [
        {
          "internalType": "address",
          "name": "spender",
          "type": "address"
        },
        {
          "internalType": "uint256",
          "name": "subtractedValue",
          "type": "uint256"
        }
      ],
      "name": "decreaseAllowance",
      "outputs": [
        {
          "internalType": "bool",
          "name": "",
          "type": "bool"
        }
      ],
      "stateMutability": "nonpayable",
      "type": "function"
    },
    {
      "inputs": [
        {
          "internalType": "address",
          "name": "spender",
          "type": "address"
        },
        {
          "internalType": "uint256",
          "name": "addedValue",
          "type": "uint256"
        }
      ],
      "name": "increaseAllowance",
      "outputs": [
        {
          "internalType": "bool",
          "name": "",
          "type": "bool"
        }
      ],
      "stateMutability": "nonpayable",
      "type": "function"
    },
    {
      "inputs": [],
      "name": "myMint",
      "outputs": [],
      "stateMutability": "nonpayable",
      "type": "function"
    },
    {
      "inputs": [],
      "name": "name",
      "outputs": [
        {
          "internalType": "string",
          "name": "",
          "type": "string"
        }
      ],
      "stateMutability": "view",
      "type": "function"
    },
    {
      "inputs": [],
      "name": "symbol",
      "outputs": [
        {
          "internalType": "string",
          "name": "",
          "type": "string"
        }
      ],
      "stateMutability": "view",
      "type": "function"
    },
    {
      "inputs": [],
      "name": "totalSupply",
      "outputs": [
        {
          "internalType": "uint256",
          "name": "",
          "type": "uint256"
        }
      ],
      "stateMutability": "view",
      "type": "function"
    },
    {
      "inputs": [
        {
          "internalType": "address",
          "name": "to",
          "type": "address"
        },
        {
          "internalType": "uint256",
          "name": "amount",
          "type": "uint256"
        }
      ],
      "name": "transfer",
      "outputs": [
        {
          "internalType": "bool",
          "name": "",
          "type": "bool"
        }
      ],
      "stateMutability": "nonpayable",
      "type": "function"
    },
    {
      "inputs": [
        {
          "internalType": "address",
          "name": "from",
          "type": "address"
        },
        {
          "internalType": "address",
          "name": "to",
          "type": "address"
        },
        {
          "internalType": "uint256",
          "name": "amount",
          "type": "uint256"
        }
      ],
      "name": "transferFrom",
      "outputs": [
        {
          "internalType": "bool",
          "name": "",
          "type": "bool"
        }
      ],
      "stateMutability": "nonpayable",
      "type": "function"
    }
  ],
  "transactionHash": "0x9d42de14b9c8792a89038fb30971ea24be2335fbc919fa482c45161ef1011ba6",
  "args": [],
  "numDeployments": 1,
  "solcInputHash": "3b501f88f96f2eec857a781e2bbf0131",
  "bytecode": "0x60806040523480156200001157600080fd5b506040518060400160405280601b81526020017f556e697465642053746174657320446f6c6c617220436972636c6500000000008152506040518060400160405280600481526020017f555344430000000000000000000000000000000000000000000000000000000081525081600390805190602001906200009692919062000282565b508060049080519060200190620000af92919062000282565b505050620000f033620000c7620000f660201b60201c565b600a620000d59190620004cc565b612710620000e491906200051d565b620000ff60201b60201c565b620006f1565b60006012905090565b600073ffffffffffffffffffffffffffffffffffffffff168273ffffffffffffffffffffffffffffffffffffffff16141562000172576040517f08c379a00000000000000000000000000000000000000000000000000000000081526004016200016990620005df565b60405180910390fd5b62000186600083836200027860201b60201c565b80600260008282546200019a919062000601565b92505081905550806000808473ffffffffffffffffffffffffffffffffffffffff1673ffffffffffffffffffffffffffffffffffffffff1681526020019081526020016000206000828254620001f1919062000601565b925050819055508173ffffffffffffffffffffffffffffffffffffffff16600073ffffffffffffffffffffffffffffffffffffffff167fddf252ad1be2c89b69c2b068fc378daa952ba7f163c4a11628f55a4df523b3ef836040516200025891906200066f565b60405180910390a362000274600083836200027d60201b60201c565b5050565b505050565b505050565b8280546200029090620006bb565b90600052602060002090601f016020900481019282620002b4576000855562000300565b82601f10620002cf57805160ff191683800117855562000300565b8280016001018555821562000300579182015b82811115620002ff578251825591602001919060010190620002e2565b5b5090506200030f919062000313565b5090565b5b808211156200032e57600081600090555060010162000314565b5090565b7f4e487b7100000000000000000000000000000000000000000000000000000000600052601160045260246000fd5b60008160011c9050919050565b6000808291508390505b6001851115620003c05780860481111562000398576200039762000332565b5b6001851615620003a85780820291505b8081029050620003b88562000361565b945062000378565b94509492505050565b600082620003db5760019050620004ae565b81620003eb5760009050620004ae565b81600181146200040457600281146200040f5762000445565b6001915050620004ae565b60ff84111562000424576200042362000332565b5b8360020a9150848211156200043e576200043d62000332565b5b50620004ae565b5060208310610133831016604e8410600b84101617156200047f5782820a90508381111562000479576200047862000332565b5b620004ae565b6200048e84848460016200036e565b92509050818404811115620004a857620004a762000332565b5b81810290505b9392505050565b6000819050919050565b600060ff82169050919050565b6000620004d982620004b5565b9150620004e683620004bf565b9250620005157fffffffffffffffffffffffffffffffffffffffffffffffffffffffffffffffff8484620003c9565b905092915050565b60006200052a82620004b5565b91506200053783620004b5565b9250817fffffffffffffffffffffffffffffffffffffffffffffffffffffffffffffffff048311821515161562000573576200057262000332565b5b828202905092915050565b600082825260208201905092915050565b7f45524332303a206d696e7420746f20746865207a65726f206164647265737300600082015250565b6000620005c7601f836200057e565b9150620005d4826200058f565b602082019050919050565b60006020820190508181036000830152620005fa81620005b8565b9050919050565b60006200060e82620004b5565b91506200061b83620004b5565b9250827fffffffffffffffffffffffffffffffffffffffffffffffffffffffffffffffff0382111562000653576200065262000332565b5b828201905092915050565b6200066981620004b5565b82525050565b60006020820190506200068660008301846200065e565b92915050565b7f4e487b7100000000000000000000000000000000000000000000000000000000600052602260045260246000fd5b60006002820490506001821680620006d457607f821691505b60208210811415620006eb57620006ea6200068c565b5b50919050565b61164d80620007016000396000f3fe608060405234801561001057600080fd5b50600436106100b45760003560e01c806370a082311161007157806370a08231146101a357806395d89b41146101d357806395e555dd146101f1578063a457c2d7146101fb578063a9059cbb1461022b578063dd62ed3e1461025b576100b4565b806306fdde03146100b9578063095ea7b3146100d757806318160ddd1461010757806323b872dd14610125578063313ce567146101555780633950935114610173575b600080fd5b6100c161028b565b6040516100ce9190610cc3565b60405180910390f35b6100f160048036038101906100ec9190610d7e565b61031d565b6040516100fe9190610dd9565b60405180910390f35b61010f610340565b60405161011c9190610e03565b60405180910390f35b61013f600480360381019061013a9190610e1e565b61034a565b60405161014c9190610dd9565b60405180910390f35b61015d610379565b60405161016a9190610e8d565b60405180910390f35b61018d60048036038101906101889190610d7e565b610382565b60405161019a9190610dd9565b60405180910390f35b6101bd60048036038101906101b89190610ea8565b6103b9565b6040516101ca9190610e03565b60405180910390f35b6101db610401565b6040516101e89190610cc3565b60405180910390f35b6101f9610493565b005b61021560048036038101906102109190610d7e565b6104bf565b6040516102229190610dd9565b60405180910390f35b61024560048036038101906102409190610d7e565b610536565b6040516102529190610dd9565b60405180910390f35b61027560048036038101906102709190610ed5565b610559565b6040516102829190610e03565b60405180910390f35b60606003805461029a90610f44565b80601f01602080910402602001604051908101604052809291908181526020018280546102c690610f44565b80156103135780601f106102e857610100808354040283529160200191610313565b820191906000526020600020905b8154815290600101906020018083116102f657829003601f168201915b5050505050905090565b6000806103286105e0565b90506103358185856105e8565b600191505092915050565b6000600254905090565b6000806103556105e0565b90506103628582856107b3565b61036d85858561083f565b60019150509392505050565b60006012905090565b60008061038d6105e0565b90506103ae81858561039f8589610559565b6103a99190610fa5565b6105e8565b600191505092915050565b60008060008373ffffffffffffffffffffffffffffffffffffffff1673ffffffffffffffffffffffffffffffffffffffff168152602001908152602001600020549050919050565b60606004805461041090610f44565b80601f016020809104026020016040519081016040528092919081815260200182805461043c90610f44565b80156104895780601f1061045e57610100808354040283529160200191610489565b820191906000526020600020905b81548152906001019060200180831161046c57829003601f168201915b5050505050905090565b6104bd3361049f610379565b600a6104ab919061112e565b6127106104b89190611179565b610ac0565b565b6000806104ca6105e0565b905060006104d88286610559565b90508381101561051d576040517f08c379a000000000000000000000000000000000000000000000000000000000815260040161051490611245565b60405180910390fd5b61052a82868684036105e8565b60019250505092915050565b6000806105416105e0565b905061054e81858561083f565b600191505092915050565b6000600160008473ffffffffffffffffffffffffffffffffffffffff1673ffffffffffffffffffffffffffffffffffffffff16815260200190815260200160002060008373ffffffffffffffffffffffffffffffffffffffff1673ffffffffffffffffffffffffffffffffffffffff16815260200190815260200160002054905092915050565b600033905090565b600073ffffffffffffffffffffffffffffffffffffffff168373ffffffffffffffffffffffffffffffffffffffff161415610658576040517f08c379a000000000000000000000000000000000000000000000000000000000815260040161064f906112d7565b60405180910390fd5b600073ffffffffffffffffffffffffffffffffffffffff168273ffffffffffffffffffffffffffffffffffffffff1614156106c8576040517f08c379a00000000000000000000000000000000000000000000000000000000081526004016106bf90611369565b60405180910390fd5b80600160008573ffffffffffffffffffffffffffffffffffffffff1673ffffffffffffffffffffffffffffffffffffffff16815260200190815260200160002060008473ffffffffffffffffffffffffffffffffffffffff1673ffffffffffffffffffffffffffffffffffffffff168152602001908152602001600020819055508173ffffffffffffffffffffffffffffffffffffffff168373ffffffffffffffffffffffffffffffffffffffff167f8c5be1e5ebec7d5bd14f71427d1e84f3dd0314c0f7b2291e5b200ac8c7c3b925836040516107a69190610e03565b60405180910390a3505050565b60006107bf8484610559565b90507fffffffffffffffffffffffffffffffffffffffffffffffffffffffffffffffff8114610839578181101561082b576040517f08c379a0000000000000000000000000000000000000000000000000000000008152600401610822906113d5565b60405180910390fd5b61083884848484036105e8565b5b50505050565b600073ffffffffffffffffffffffffffffffffffffffff168373ffffffffffffffffffffffffffffffffffffffff1614156108af576040517f08c379a00000000000000000000000000000000000000000000000000000000081526004016108a690611467565b60405180910390fd5b600073ffffffffffffffffffffffffffffffffffffffff168273ffffffffffffffffffffffffffffffffffffffff16141561091f576040517f08c379a0000000000000000000000000000000000000000000000000000000008152600401610916906114f9565b60405180910390fd5b61092a838383610c20565b60008060008573ffffffffffffffffffffffffffffffffffffffff1673ffffffffffffffffffffffffffffffffffffffff168152602001908152602001600020549050818110156109b0576040517f08c379a00000000000000000000000000000000000000000000000000000000081526004016109a79061158b565b60405180910390fd5b8181036000808673ffffffffffffffffffffffffffffffffffffffff1673ffffffffffffffffffffffffffffffffffffffff16815260200190815260200160002081905550816000808573ffffffffffffffffffffffffffffffffffffffff1673ffffffffffffffffffffffffffffffffffffffff1681526020019081526020016000206000828254610a439190610fa5565b925050819055508273ffffffffffffffffffffffffffffffffffffffff168473ffffffffffffffffffffffffffffffffffffffff167fddf252ad1be2c89b69c2b068fc378daa952ba7f163c4a11628f55a4df523b3ef84604051610aa79190610e03565b60405180910390a3610aba848484610c25565b50505050565b600073ffffffffffffffffffffffffffffffffffffffff168273ffffffffffffffffffffffffffffffffffffffff161415610b30576040517f08c379a0000000000000000000000000000000000000000000000000000000008152600401610b27906115f7565b60405180910390fd5b610b3c60008383610c20565b8060026000828254610b4e9190610fa5565b92505081905550806000808473ffffffffffffffffffffffffffffffffffffffff1673ffffffffffffffffffffffffffffffffffffffff1681526020019081526020016000206000828254610ba39190610fa5565b925050819055508173ffffffffffffffffffffffffffffffffffffffff16600073ffffffffffffffffffffffffffffffffffffffff167fddf252ad1be2c89b69c2b068fc378daa952ba7f163c4a11628f55a4df523b3ef83604051610c089190610e03565b60405180910390a3610c1c60008383610c25565b5050565b505050565b505050565b600081519050919050565b600082825260208201905092915050565b60005b83811015610c64578082015181840152602081019050610c49565b83811115610c73576000848401525b50505050565b6000601f19601f8301169050919050565b6000610c9582610c2a565b610c9f8185610c35565b9350610caf818560208601610c46565b610cb881610c79565b840191505092915050565b60006020820190508181036000830152610cdd8184610c8a565b905092915050565b600080fd5b600073ffffffffffffffffffffffffffffffffffffffff82169050919050565b6000610d1582610cea565b9050919050565b610d2581610d0a565b8114610d3057600080fd5b50565b600081359050610d4281610d1c565b92915050565b6000819050919050565b610d5b81610d48565b8114610d6657600080fd5b50565b600081359050610d7881610d52565b92915050565b60008060408385031215610d9557610d94610ce5565b5b6000610da385828601610d33565b9250506020610db485828601610d69565b9150509250929050565b60008115159050919050565b610dd381610dbe565b82525050565b6000602082019050610dee6000830184610dca565b92915050565b610dfd81610d48565b82525050565b6000602082019050610e186000830184610df4565b92915050565b600080600060608486031215610e3757610e36610ce5565b5b6000610e4586828701610d33565b9350506020610e5686828701610d33565b9250506040610e6786828701610d69565b9150509250925092565b600060ff82169050919050565b610e8781610e71565b82525050565b6000602082019050610ea26000830184610e7e565b92915050565b600060208284031215610ebe57610ebd610ce5565b5b6000610ecc84828501610d33565b91505092915050565b60008060408385031215610eec57610eeb610ce5565b5b6000610efa85828601610d33565b9250506020610f0b85828601610d33565b9150509250929050565b7f4e487b7100000000000000000000000000000000000000000000000000000000600052602260045260246000fd5b60006002820490506001821680610f5c57607f821691505b60208210811415610f7057610f6f610f15565b5b50919050565b7f4e487b7100000000000000000000000000000000000000000000000000000000600052601160045260246000fd5b6000610fb082610d48565b9150610fbb83610d48565b9250827fffffffffffffffffffffffffffffffffffffffffffffffffffffffffffffffff03821115610ff057610fef610f76565b5b828201905092915050565b60008160011c9050919050565b6000808291508390505b60018511156110525780860481111561102e5761102d610f76565b5b600185161561103d5780820291505b808102905061104b85610ffb565b9450611012565b94509492505050565b60008261106b5760019050611127565b816110795760009050611127565b816001811461108f5760028114611099576110c8565b6001915050611127565b60ff8411156110ab576110aa610f76565b5b8360020a9150848211156110c2576110c1610f76565b5b50611127565b5060208310610133831016604e8410600b84101617156110fd5782820a9050838111156110f8576110f7610f76565b5b611127565b61110a8484846001611008565b9250905081840481111561112157611120610f76565b5b81810290505b9392505050565b600061113982610d48565b915061114483610e71565b92506111717fffffffffffffffffffffffffffffffffffffffffffffffffffffffffffffffff848461105b565b905092915050565b600061118482610d48565b915061118f83610d48565b9250817fffffffffffffffffffffffffffffffffffffffffffffffffffffffffffffffff04831182151516156111c8576111c7610f76565b5b828202905092915050565b7f45524332303a2064656372656173656420616c6c6f77616e63652062656c6f7760008201527f207a65726f000000000000000000000000000000000000000000000000000000602082015250565b600061122f602583610c35565b915061123a826111d3565b604082019050919050565b6000602082019050818103600083015261125e81611222565b9050919050565b7f45524332303a20617070726f76652066726f6d20746865207a65726f2061646460008201527f7265737300000000000000000000000000000000000000000000000000000000602082015250565b60006112c1602483610c35565b91506112cc82611265565b604082019050919050565b600060208201905081810360008301526112f0816112b4565b9050919050565b7f45524332303a20617070726f766520746f20746865207a65726f20616464726560008201527f7373000000000000000000000000000000000000000000000000000000000000602082015250565b6000611353602283610c35565b915061135e826112f7565b604082019050919050565b6000602082019050818103600083015261138281611346565b9050919050565b7f45524332303a20696e73756666696369656e7420616c6c6f77616e6365000000600082015250565b60006113bf601d83610c35565b91506113ca82611389565b602082019050919050565b600060208201905081810360008301526113ee816113b2565b9050919050565b7f45524332303a207472616e736665722066726f6d20746865207a65726f20616460008201527f6472657373000000000000000000000000000000000000000000000000000000602082015250565b6000611451602583610c35565b915061145c826113f5565b604082019050919050565b6000602082019050818103600083015261148081611444565b9050919050565b7f45524332303a207472616e7366657220746f20746865207a65726f206164647260008201527f6573730000000000000000000000000000000000000000000000000000000000602082015250565b60006114e3602383610c35565b91506114ee82611487565b604082019050919050565b60006020820190508181036000830152611512816114d6565b9050919050565b7f45524332303a207472616e7366657220616d6f756e742065786365656473206260008201527f616c616e63650000000000000000000000000000000000000000000000000000602082015250565b6000611575602683610c35565b915061158082611519565b604082019050919050565b600060208201905081810360008301526115a481611568565b9050919050565b7f45524332303a206d696e7420746f20746865207a65726f206164647265737300600082015250565b60006115e1601f83610c35565b91506115ec826115ab565b602082019050919050565b60006020820190508181036000830152611610816115d4565b905091905056fea26469706673582212205b6c59accd54abdee26e4750286700bdb9d6548b4a184ba5e5d8f33aa553df2564736f6c63430008090033",
  "devdoc": {
    "kind": "dev",
    "methods": {
      "allowance(address,address)": {
        "details": "See {IERC20-allowance}."
      },
      "approve(address,uint256)": {
        "details": "See {IERC20-approve}. NOTE: If `amount` is the maximum `uint256`, the allowance is not updated on `transferFrom`. This is semantically equivalent to an infinite approval. Requirements: - `spender` cannot be the zero address."
      },
      "balanceOf(address)": {
        "details": "See {IERC20-balanceOf}."
      },
      "decimals()": {
        "details": "Returns the number of decimals used to get its user representation. For example, if `decimals` equals `2`, a balance of `505` tokens should be displayed to a user as `5.05` (`505 / 10 ** 2`). Tokens usually opt for a value of 18, imitating the relationship between Ether and Wei. This is the value {ERC20} uses, unless this function is overridden; NOTE: This information is only used for _display_ purposes: it in no way affects any of the arithmetic of the contract, including {IERC20-balanceOf} and {IERC20-transfer}."
      },
      "decreaseAllowance(address,uint256)": {
        "details": "Atomically decreases the allowance granted to `spender` by the caller. This is an alternative to {approve} that can be used as a mitigation for problems described in {IERC20-approve}. Emits an {Approval} event indicating the updated allowance. Requirements: - `spender` cannot be the zero address. - `spender` must have allowance for the caller of at least `subtractedValue`."
      },
      "increaseAllowance(address,uint256)": {
        "details": "Atomically increases the allowance granted to `spender` by the caller. This is an alternative to {approve} that can be used as a mitigation for problems described in {IERC20-approve}. Emits an {Approval} event indicating the updated allowance. Requirements: - `spender` cannot be the zero address."
      },
      "name()": {
        "details": "Returns the name of the token."
      },
      "symbol()": {
        "details": "Returns the symbol of the token, usually a shorter version of the name."
      },
      "totalSupply()": {
        "details": "See {IERC20-totalSupply}."
      },
      "transfer(address,uint256)": {
        "details": "See {IERC20-transfer}. Requirements: - `to` cannot be the zero address. - the caller must have a balance of at least `amount`."
      },
      "transferFrom(address,address,uint256)": {
        "details": "See {IERC20-transferFrom}. Emits an {Approval} event indicating the updated allowance. This is not required by the EIP. See the note at the beginning of {ERC20}. NOTE: Does not update the allowance if the current allowance is the maximum `uint256`. Requirements: - `from` and `to` cannot be the zero address. - `from` must have a balance of at least `amount`. - the caller must have allowance for ``from``'s tokens of at least `amount`."
      }
    },
    "version": 1
  },
  "userdoc": {
    "kind": "user",
    "methods": {},
    "version": 1
  },
  "storageLayout": {
    "storage": [
      {
        "astId": 15,
        "contract": "contracts/ExampleERC20.sol:ExampleERC20",
        "label": "_balances",
        "offset": 0,
        "slot": "0",
        "type": "t_mapping(t_address,t_uint256)"
      },
      {
        "astId": 21,
        "contract": "contracts/ExampleERC20.sol:ExampleERC20",
        "label": "_allowances",
        "offset": 0,
        "slot": "1",
        "type": "t_mapping(t_address,t_mapping(t_address,t_uint256))"
      },
      {
        "astId": 23,
        "contract": "contracts/ExampleERC20.sol:ExampleERC20",
        "label": "_totalSupply",
        "offset": 0,
        "slot": "2",
        "type": "t_uint256"
      },
      {
        "astId": 25,
        "contract": "contracts/ExampleERC20.sol:ExampleERC20",
        "label": "_name",
        "offset": 0,
        "slot": "3",
        "type": "t_string_storage"
      },
      {
        "astId": 27,
        "contract": "contracts/ExampleERC20.sol:ExampleERC20",
        "label": "_symbol",
        "offset": 0,
        "slot": "4",
        "type": "t_string_storage"
      }
    ],
    "types": {
      "t_address": {
        "encoding": "inplace",
        "label": "address",
        "numberOfBytes": "20"
      },
      "t_mapping(t_address,t_mapping(t_address,t_uint256))": {
        "encoding": "mapping",
        "key": "t_address",
        "label": "mapping(address => mapping(address => uint256))",
        "numberOfBytes": "32",
        "value": "t_mapping(t_address,t_uint256)"
      },
      "t_mapping(t_address,t_uint256)": {
        "encoding": "mapping",
        "key": "t_address",
        "label": "mapping(address => uint256)",
        "numberOfBytes": "32",
        "value": "t_uint256"
      },
      "t_string_storage": {
        "encoding": "bytes",
        "label": "string",
        "numberOfBytes": "32"
      },
      "t_uint256": {
        "encoding": "inplace",
        "label": "uint256",
        "numberOfBytes": "32"
      }
    }
  }
}