{
  "address": "0x24d2abeC5296BF0B145B9b10d51B8d48eCC830a0",
  "abi": [
    {
      "inputs": [],
      "name": "QuestionAndAnswer__AllowanceTooLow",
      "type": "error"
    },
    {
      "inputs": [],
      "name": "QuestionAndAnswer__BountyTooLow",
      "type": "error"
    },
    {
      "inputs": [],
      "name": "QuestionAndAnswer__InvalidPriceMinimum",
      "type": "error"
    },
    {
      "inputs": [],
      "name": "QuestionAndAnswer__NothingToWithdraw",
      "type": "error"
    },
    {
      "inputs": [],
      "name": "QuestionAndAnswer__QuestionAlreadyAnswered",
      "type": "error"
    },
    {
      "inputs": [],
      "name": "QuestionAndAnswer__QuestionDoesNotExist",
      "type": "error"
    },
    {
      "anonymous": false,
      "inputs": [
        {
          "indexed": true,
          "internalType": "address",
          "name": "questioner",
          "type": "address"
        },
        {
          "indexed": true,
          "internalType": "address",
          "name": "answerer",
          "type": "address"
        },
        {
          "indexed": true,
          "internalType": "uint256",
          "name": "questionId",
          "type": "uint256"
        },
        {
          "indexed": false,
          "internalType": "uint256",
          "name": "bounty",
          "type": "uint256"
        },
        {
          "indexed": false,
          "internalType": "uint256",
          "name": "date",
          "type": "uint256"
        },
        {
          "indexed": false,
          "internalType": "string",
          "name": "answer",
          "type": "string"
        }
      ],
      "name": "QuestionAnswered",
      "type": "event"
    },
    {
      "anonymous": false,
      "inputs": [
        {
          "indexed": true,
          "internalType": "address",
          "name": "questioner",
          "type": "address"
        },
        {
          "indexed": true,
          "internalType": "address",
          "name": "answerer",
          "type": "address"
        },
        {
          "indexed": true,
          "internalType": "uint256",
          "name": "questionId",
          "type": "uint256"
        },
        {
          "indexed": false,
          "internalType": "uint256",
          "name": "bounty",
          "type": "uint256"
        },
        {
          "indexed": false,
          "internalType": "uint256",
          "name": "date",
          "type": "uint256"
        },
        {
          "indexed": false,
          "internalType": "string",
          "name": "question",
          "type": "string"
        }
      ],
      "name": "QuestionAsked",
      "type": "event"
    },
    {
      "anonymous": false,
      "inputs": [
        {
          "indexed": true,
          "internalType": "address",
          "name": "questioner",
          "type": "address"
        },
        {
          "indexed": true,
          "internalType": "address",
          "name": "answerer",
          "type": "address"
        },
        {
          "indexed": true,
          "internalType": "uint256",
          "name": "questionId",
          "type": "uint256"
        },
        {
          "indexed": false,
          "internalType": "uint256",
          "name": "date",
          "type": "uint256"
        }
      ],
      "name": "QuestionCanceled",
      "type": "event"
    },
    {
      "anonymous": false,
      "inputs": [
        {
          "indexed": true,
          "internalType": "address",
          "name": "questioner",
          "type": "address"
        },
        {
          "indexed": true,
          "internalType": "address",
          "name": "answerer",
          "type": "address"
        },
        {
          "indexed": true,
          "internalType": "uint256",
          "name": "questionId",
          "type": "uint256"
        },
        {
          "indexed": false,
          "internalType": "uint256",
          "name": "date",
          "type": "uint256"
        }
      ],
      "name": "QuestionExpired",
      "type": "event"
    },
    {
      "anonymous": false,
      "inputs": [
        {
          "indexed": true,
          "internalType": "address",
          "name": "withdrawalBy",
          "type": "address"
        },
        {
          "indexed": true,
          "internalType": "uint256",
          "name": "amount",
          "type": "uint256"
        }
      ],
      "name": "Withdraw",
      "type": "event"
    },
    {
      "inputs": [
        {
          "internalType": "address",
          "name": "questioner",
          "type": "address"
        },
        {
          "internalType": "uint256",
          "name": "questionId",
          "type": "uint256"
        },
        {
          "internalType": "string",
          "name": "answer",
          "type": "string"
        }
      ],
      "name": "answerQuestion",
      "outputs": [],
      "stateMutability": "nonpayable",
      "type": "function"
    },
    {
      "inputs": [
        {
          "internalType": "address",
          "name": "",
          "type": "address"
        }
      ],
      "name": "answererToSettings",
      "outputs": [
        {
          "internalType": "bool",
          "name": "populated",
          "type": "bool"
        },
        {
          "internalType": "uint256",
          "name": "priceMinimum",
          "type": "uint256"
        },
        {
          "internalType": "uint256",
          "name": "withdrawableAmount",
          "type": "uint256"
        },
        {
          "internalType": "string",
          "name": "blurb",
          "type": "string"
        }
      ],
      "stateMutability": "view",
      "type": "function"
    },
    {
      "inputs": [],
      "name": "answererWithdraw",
      "outputs": [],
      "stateMutability": "nonpayable",
      "type": "function"
    },
    {
      "inputs": [
        {
          "internalType": "string",
          "name": "question",
          "type": "string"
        },
        {
          "internalType": "address",
          "name": "answerer",
          "type": "address"
        },
        {
          "internalType": "uint256",
          "name": "bounty",
          "type": "uint256"
        }
      ],
      "name": "askQuestion",
      "outputs": [],
      "stateMutability": "nonpayable",
      "type": "function"
    },
    {
      "inputs": [
        {
          "internalType": "address",
          "name": "questioner",
          "type": "address"
        },
        {
          "internalType": "address",
          "name": "answerer",
          "type": "address"
        },
        {
          "internalType": "uint256",
          "name": "index",
          "type": "uint256"
        }
      ],
      "name": "getQuestionerToAnswererToQAs",
      "outputs": [
        {
          "internalType": "string",
          "name": "",
          "type": "string"
        },
        {
          "internalType": "string",
          "name": "",
          "type": "string"
        },
        {
          "internalType": "bool",
          "name": "",
          "type": "bool"
        },
        {
          "internalType": "uint256",
          "name": "",
          "type": "uint256"
        },
        {
          "internalType": "uint256",
          "name": "",
          "type": "uint256"
        }
      ],
      "stateMutability": "view",
      "type": "function"
    },
    {
      "inputs": [
        {
          "internalType": "string",
          "name": "blurb",
          "type": "string"
        }
      ],
      "name": "setAnswererSettingsBlurb",
      "outputs": [],
      "stateMutability": "nonpayable",
      "type": "function"
    },
    {
      "inputs": [
        {
          "internalType": "uint256",
          "name": "priceMinimum",
          "type": "uint256"
        }
      ],
      "name": "setAnswererSettingsPriceMinimum",
      "outputs": [],
      "stateMutability": "nonpayable",
      "type": "function"
    }
  ],
  "transactionHash": "0xa7ac09d6ea94bc2596600f7905723a6adb001e4d47796f7d3b99462271c0e27d",
  "args": [],
  "numDeployments": 5,
  "solcInputHash": "965e3c2167e9dc9c200a6803b3c3f192",
  "bytecode": "0x608060405234801561001057600080fd5b50611c34806100206000396000f3fe608060405234801561001057600080fd5b506004361061007d5760003560e01c8063a705d53d1161005b578063a705d53d146100c4578063e2913c6b146100e0578063ee3619a614610113578063fc5c82981461012f5761007d565b8063018070f8146100825780637a5156401461008c5780637b74b833146100a8575b600080fd5b61008a610163565b005b6100a660048036038101906100a191906114f1565b6102e6565b005b6100c260048036038101906100bd91906115e1565b6103c3565b005b6100de60048036038101906100d99190611655565b6106f8565b005b6100fa60048036038101906100f591906116a2565b6107a7565b60405161010a9493929190611792565b60405180910390f35b61012d600480360381019061012891906117de565b61086c565b005b61014960048036038101906101449190611852565b610f28565b60405161015a9594939291906118a5565b60405180910390f35b60008060003373ffffffffffffffffffffffffffffffffffffffff1673ffffffffffffffffffffffffffffffffffffffff168152602001908152602001600020905060008160020154116101e3576040517f803b3bd600000000000000000000000000000000000000000000000000000000815260040160405180910390fd5b600081600201549050600073d77cffca19aec21aca9f0e38743740efd548b2a490508073ffffffffffffffffffffffffffffffffffffffff1663a9059cbb33846040518363ffffffff1660e01b8152600401610240929190611915565b602060405180830381600087803b15801561025a57600080fd5b505af115801561026e573d6000803e3d6000fd5b505050506040513d601f19601f82011682018060405250810190610292919061196a565b5060008360020181905550813373ffffffffffffffffffffffffffffffffffffffff167f884edad9ce6fa2440d8a54cc123490eb96d2768479d49ff9c7366125a942436460405160405180910390a3505050565b60008111610320576040517ffcc286a000000000000000000000000000000000000000000000000000000000815260040160405180910390fd5b60016000803373ffffffffffffffffffffffffffffffffffffffff1673ffffffffffffffffffffffffffffffffffffffff16815260200190815260200160002060000160006101000a81548160ff021916908315150217905550806000803373ffffffffffffffffffffffffffffffffffffffff1673ffffffffffffffffffffffffffffffffffffffff1681526020019081526020016000206001018190555050565b6000600160008673ffffffffffffffffffffffffffffffffffffffff1673ffffffffffffffffffffffffffffffffffffffff16815260200190815260200160002060003373ffffffffffffffffffffffffffffffffffffffff1673ffffffffffffffffffffffffffffffffffffffff16815260200190815260200160002090508381805490501161047f576040517e4095f600000000000000000000000000000000000000000000000000000000815260040160405180910390fd5b80848154811061049257610491611997565b5b906000526020600020906005020160020160009054906101000a900460ff16156104e8576040517f894c1a4700000000000000000000000000000000000000000000000000000000815260040160405180910390fd5b82828286815481106104fd576104fc611997565b5b9060005260206000209060050201600101919061051b929190611388565b50600181858154811061053157610530611997565b5b906000526020600020906005020160020160006101000a81548160ff021916908315150217905550600081858154811061056e5761056d611997565b5b9060005260206000209060050201600301549050843373ffffffffffffffffffffffffffffffffffffffff168773ffffffffffffffffffffffffffffffffffffffff167f6bd44ed2453a257d2a02f8437dd1009cb4790852a0581d9d2214324c0feb30bf844289896040516105e69493929190611a02565b60405180910390a4600073d77cffca19aec21aca9f0e38743740efd548b2a490508073ffffffffffffffffffffffffffffffffffffffff166323b872dd8830856040518463ffffffff1660e01b815260040161064493929190611a42565b602060405180830381600087803b15801561065e57600080fd5b505af1158015610672573d6000803e3d6000fd5b505050506040513d601f19601f82011682018060405250810190610696919061196a565b50816000803373ffffffffffffffffffffffffffffffffffffffff1673ffffffffffffffffffffffffffffffffffffffff16815260200190815260200160002060020160008282546106e89190611aa8565b9250508190555050505050505050565b60016000803373ffffffffffffffffffffffffffffffffffffffff1673ffffffffffffffffffffffffffffffffffffffff16815260200190815260200160002060000160006101000a81548160ff02191690831515021790555081816000803373ffffffffffffffffffffffffffffffffffffffff1673ffffffffffffffffffffffffffffffffffffffff16815260200190815260200160002060030191906107a2929190611388565b505050565b60006020528060005260406000206000915090508060000160009054906101000a900460ff16908060010154908060020154908060030180546107e990611b2d565b80601f016020809104026020016040519081016040528092919081815260200182805461081590611b2d565b80156108625780601f1061083757610100808354040283529160200191610862565b820191906000526020600020905b81548152906001019060200180831161084557829003601f168201915b5050505050905084565b60008060008473ffffffffffffffffffffffffffffffffffffffff1673ffffffffffffffffffffffffffffffffffffffff1681526020019081526020016000206040518060800160405290816000820160009054906101000a900460ff1615151515815260200160018201548152602001600282015481526020016003820180546108f690611b2d565b80601f016020809104026020016040519081016040528092919081815260200182805461092290611b2d565b801561096f5780601f106109445761010080835404028352916020019161096f565b820191906000526020600020905b81548152906001019060200180831161095257829003601f168201915b50505050508152505090508060000151801561098e5750806020015182105b156109c5576040517f97c28dc200000000000000000000000000000000000000000000000000000000815260040160405180910390fd5b600073d77cffca19aec21aca9f0e38743740efd548b2a49050828173ffffffffffffffffffffffffffffffffffffffff1663dd62ed3e33306040518363ffffffff1660e01b8152600401610a1a929190611b5f565b60206040518083038186803b158015610a3257600080fd5b505afa158015610a46573d6000803e3d6000fd5b505050506040513d601f19601f82011682018060405250810190610a6a9190611b9d565b1015610aa2576040517fcefbc98e00000000000000000000000000000000000000000000000000000000815260040160405180910390fd5b6000600160003373ffffffffffffffffffffffffffffffffffffffff1673ffffffffffffffffffffffffffffffffffffffff16815260200190815260200160002060008673ffffffffffffffffffffffffffffffffffffffff1673ffffffffffffffffffffffffffffffffffffffff168152602001908152602001600020805480602002602001604051908101604052809291908181526020016000905b82821015610cc557838290600052602060002090600502016040518060a0016040529081600082018054610b7390611b2d565b80601f0160208091040260200160405190810160405280929190818152602001828054610b9f90611b2d565b8015610bec5780601f10610bc157610100808354040283529160200191610bec565b820191906000526020600020905b815481529060010190602001808311610bcf57829003601f168201915b50505050508152602001600182018054610c0590611b2d565b80601f0160208091040260200160405190810160405280929190818152602001828054610c3190611b2d565b8015610c7e5780601f10610c5357610100808354040283529160200191610c7e565b820191906000526020600020905b815481529060010190602001808311610c6157829003601f168201915b505050505081526020016002820160009054906101000a900460ff161515151581526020016003820154815260200160048201548152505081526020019060010190610b40565b50505050905060006040518060a0016040528089898080601f016020809104026020016040519081016040528093929190818152602001838380828437600081840152601f19601f820116905080830192505050505050508152602001604051806020016040528060008152508152602001600015158152602001868152602001600081525090506000825114610d985760018260018451610d679190611bca565b81518110610d7857610d77611997565b5b602002602001015160800151610d8e9190611aa8565b8160800181815250505b600160003373ffffffffffffffffffffffffffffffffffffffff1673ffffffffffffffffffffffffffffffffffffffff16815260200190815260200160002060008773ffffffffffffffffffffffffffffffffffffffff1673ffffffffffffffffffffffffffffffffffffffff1681526020019081526020016000208190806001815401808255809150506001900390600052602060002090600502016000909190919091506000820151816000019080519060200190610e5a92919061140e565b506020820151816001019080519060200190610e7792919061140e565b5060408201518160020160006101000a81548160ff0219169083151502179055506060820151816003015560808201518160040155505080608001518673ffffffffffffffffffffffffffffffffffffffff163373ffffffffffffffffffffffffffffffffffffffff167fa566fb299bfa5cfd2a6124aa0dd36dfb2ff2fb4c63dd05d5d53c3be062882db288428d8d604051610f169493929190611a02565b60405180910390a45050505050505050565b6060806000806000600160008973ffffffffffffffffffffffffffffffffffffffff1673ffffffffffffffffffffffffffffffffffffffff16815260200190815260200160002060008873ffffffffffffffffffffffffffffffffffffffff1673ffffffffffffffffffffffffffffffffffffffff1681526020019081526020016000208681548110610fbe57610fbd611997565b5b9060005260206000209060050201600001600160008a73ffffffffffffffffffffffffffffffffffffffff1673ffffffffffffffffffffffffffffffffffffffff16815260200190815260200160002060008973ffffffffffffffffffffffffffffffffffffffff1673ffffffffffffffffffffffffffffffffffffffff168152602001908152602001600020878154811061105d5761105c611997565b5b9060005260206000209060050201600101600160008b73ffffffffffffffffffffffffffffffffffffffff1673ffffffffffffffffffffffffffffffffffffffff16815260200190815260200160002060008a73ffffffffffffffffffffffffffffffffffffffff1673ffffffffffffffffffffffffffffffffffffffff16815260200190815260200160002088815481106110fc576110fb611997565b5b906000526020600020906005020160020160009054906101000a900460ff16600160008c73ffffffffffffffffffffffffffffffffffffffff1673ffffffffffffffffffffffffffffffffffffffff16815260200190815260200160002060008b73ffffffffffffffffffffffffffffffffffffffff1673ffffffffffffffffffffffffffffffffffffffff16815260200190815260200160002089815481106111a9576111a8611997565b5b906000526020600020906005020160030154600160008d73ffffffffffffffffffffffffffffffffffffffff1673ffffffffffffffffffffffffffffffffffffffff16815260200190815260200160002060008c73ffffffffffffffffffffffffffffffffffffffff1673ffffffffffffffffffffffffffffffffffffffff1681526020019081526020016000208a8154811061124957611248611997565b5b90600052602060002090600502016004015484805461126790611b2d565b80601f016020809104026020016040519081016040528092919081815260200182805461129390611b2d565b80156112e05780601f106112b5576101008083540402835291602001916112e0565b820191906000526020600020905b8154815290600101906020018083116112c357829003601f168201915b505050505094508380546112f390611b2d565b80601f016020809104026020016040519081016040528092919081815260200182805461131f90611b2d565b801561136c5780601f106113415761010080835404028352916020019161136c565b820191906000526020600020905b81548152906001019060200180831161134f57829003601f168201915b5050505050935094509450945094509450939792965093509350565b82805461139490611b2d565b90600052602060002090601f0160209004810192826113b657600085556113fd565b82601f106113cf57803560ff19168380011785556113fd565b828001600101855582156113fd579182015b828111156113fc5782358255916020019190600101906113e1565b5b50905061140a9190611494565b5090565b82805461141a90611b2d565b90600052602060002090601f01602090048101928261143c5760008555611483565b82601f1061145557805160ff1916838001178555611483565b82800160010185558215611483579182015b82811115611482578251825591602001919060010190611467565b5b5090506114909190611494565b5090565b5b808211156114ad576000816000905550600101611495565b5090565b600080fd5b600080fd5b6000819050919050565b6114ce816114bb565b81146114d957600080fd5b50565b6000813590506114eb816114c5565b92915050565b600060208284031215611507576115066114b1565b5b6000611515848285016114dc565b91505092915050565b600073ffffffffffffffffffffffffffffffffffffffff82169050919050565b60006115498261151e565b9050919050565b6115598161153e565b811461156457600080fd5b50565b60008135905061157681611550565b92915050565b600080fd5b600080fd5b600080fd5b60008083601f8401126115a1576115a061157c565b5b8235905067ffffffffffffffff8111156115be576115bd611581565b5b6020830191508360018202830111156115da576115d9611586565b5b9250929050565b600080600080606085870312156115fb576115fa6114b1565b5b600061160987828801611567565b945050602061161a878288016114dc565b935050604085013567ffffffffffffffff81111561163b5761163a6114b6565b5b6116478782880161158b565b925092505092959194509250565b6000806020838503121561166c5761166b6114b1565b5b600083013567ffffffffffffffff81111561168a576116896114b6565b5b6116968582860161158b565b92509250509250929050565b6000602082840312156116b8576116b76114b1565b5b60006116c684828501611567565b91505092915050565b60008115159050919050565b6116e4816116cf565b82525050565b6116f3816114bb565b82525050565b600081519050919050565b600082825260208201905092915050565b60005b83811015611733578082015181840152602081019050611718565b83811115611742576000848401525b50505050565b6000601f19601f8301169050919050565b6000611764826116f9565b61176e8185611704565b935061177e818560208601611715565b61178781611748565b840191505092915050565b60006080820190506117a760008301876116db565b6117b460208301866116ea565b6117c160408301856116ea565b81810360608301526117d38184611759565b905095945050505050565b600080600080606085870312156117f8576117f76114b1565b5b600085013567ffffffffffffffff811115611816576118156114b6565b5b6118228782880161158b565b9450945050602061183587828801611567565b9250506040611846878288016114dc565b91505092959194509250565b60008060006060848603121561186b5761186a6114b1565b5b600061187986828701611567565b935050602061188a86828701611567565b925050604061189b868287016114dc565b9150509250925092565b600060a08201905081810360008301526118bf8188611759565b905081810360208301526118d38187611759565b90506118e260408301866116db565b6118ef60608301856116ea565b6118fc60808301846116ea565b9695505050505050565b61190f8161153e565b82525050565b600060408201905061192a6000830185611906565b61193760208301846116ea565b9392505050565b611947816116cf565b811461195257600080fd5b50565b6000815190506119648161193e565b92915050565b6000602082840312156119805761197f6114b1565b5b600061198e84828501611955565b91505092915050565b7f4e487b7100000000000000000000000000000000000000000000000000000000600052603260045260246000fd5b82818337600083830152505050565b60006119e18385611704565b93506119ee8385846119c6565b6119f783611748565b840190509392505050565b6000606082019050611a1760008301876116ea565b611a2460208301866116ea565b8181036040830152611a378184866119d5565b905095945050505050565b6000606082019050611a576000830186611906565b611a646020830185611906565b611a7160408301846116ea565b949350505050565b7f4e487b7100000000000000000000000000000000000000000000000000000000600052601160045260246000fd5b6000611ab3826114bb565b9150611abe836114bb565b9250827fffffffffffffffffffffffffffffffffffffffffffffffffffffffffffffffff03821115611af357611af2611a79565b5b828201905092915050565b7f4e487b7100000000000000000000000000000000000000000000000000000000600052602260045260246000fd5b60006002820490506001821680611b4557607f821691505b60208210811415611b5957611b58611afe565b5b50919050565b6000604082019050611b746000830185611906565b611b816020830184611906565b9392505050565b600081519050611b97816114c5565b92915050565b600060208284031215611bb357611bb26114b1565b5b6000611bc184828501611b88565b91505092915050565b6000611bd5826114bb565b9150611be0836114bb565b925082821015611bf357611bf2611a79565b5b82820390509291505056fea2646970667358221220fcc7d2d92c9e68b082b06892b9ecad8ef8dc355ebe8f34035c6f5a1ca44a581b64736f6c63430008090033",
  "devdoc": {
    "kind": "dev",
    "methods": {},
    "version": 1
  },
  "userdoc": {
    "kind": "user",
    "methods": {},
    "version": 1
  },
  "storageLayout": {
    "storage": [
      {
        "astId": 837,
        "contract": "contracts/QuestionAndAnswer.sol:QuestionAndAnswer",
        "label": "answererToSettings",
        "offset": 0,
        "slot": "0",
        "type": "t_mapping(t_address,t_struct(AnswererSettings)821_storage)"
      },
      {
        "astId": 845,
        "contract": "contracts/QuestionAndAnswer.sol:QuestionAndAnswer",
        "label": "questionerToAnswererToQAs",
        "offset": 0,
        "slot": "1",
        "type": "t_mapping(t_address,t_mapping(t_address,t_array(t_struct(QuestionAnswerDetails)832_storage)dyn_storage))"
      }
    ],
    "types": {
      "t_address": {
        "encoding": "inplace",
        "label": "address",
        "numberOfBytes": "20"
      },
      "t_array(t_struct(QuestionAnswerDetails)832_storage)dyn_storage": {
        "base": "t_struct(QuestionAnswerDetails)832_storage",
        "encoding": "dynamic_array",
        "label": "struct QuestionAndAnswer.QuestionAnswerDetails[]",
        "numberOfBytes": "32"
      },
      "t_bool": {
        "encoding": "inplace",
        "label": "bool",
        "numberOfBytes": "1"
      },
      "t_mapping(t_address,t_array(t_struct(QuestionAnswerDetails)832_storage)dyn_storage)": {
        "encoding": "mapping",
        "key": "t_address",
        "label": "mapping(address => struct QuestionAndAnswer.QuestionAnswerDetails[])",
        "numberOfBytes": "32",
        "value": "t_array(t_struct(QuestionAnswerDetails)832_storage)dyn_storage"
      },
      "t_mapping(t_address,t_mapping(t_address,t_array(t_struct(QuestionAnswerDetails)832_storage)dyn_storage))": {
        "encoding": "mapping",
        "key": "t_address",
        "label": "mapping(address => mapping(address => struct QuestionAndAnswer.QuestionAnswerDetails[]))",
        "numberOfBytes": "32",
        "value": "t_mapping(t_address,t_array(t_struct(QuestionAnswerDetails)832_storage)dyn_storage)"
      },
      "t_mapping(t_address,t_struct(AnswererSettings)821_storage)": {
        "encoding": "mapping",
        "key": "t_address",
        "label": "mapping(address => struct QuestionAndAnswer.AnswererSettings)",
        "numberOfBytes": "32",
        "value": "t_struct(AnswererSettings)821_storage"
      },
      "t_string_storage": {
        "encoding": "bytes",
        "label": "string",
        "numberOfBytes": "32"
      },
      "t_struct(AnswererSettings)821_storage": {
        "encoding": "inplace",
        "label": "struct QuestionAndAnswer.AnswererSettings",
        "members": [
          {
            "astId": 814,
            "contract": "contracts/QuestionAndAnswer.sol:QuestionAndAnswer",
            "label": "populated",
            "offset": 0,
            "slot": "0",
            "type": "t_bool"
          },
          {
            "astId": 816,
            "contract": "contracts/QuestionAndAnswer.sol:QuestionAndAnswer",
            "label": "priceMinimum",
            "offset": 0,
            "slot": "1",
            "type": "t_uint256"
          },
          {
            "astId": 818,
            "contract": "contracts/QuestionAndAnswer.sol:QuestionAndAnswer",
            "label": "withdrawableAmount",
            "offset": 0,
            "slot": "2",
            "type": "t_uint256"
          },
          {
            "astId": 820,
            "contract": "contracts/QuestionAndAnswer.sol:QuestionAndAnswer",
            "label": "blurb",
            "offset": 0,
            "slot": "3",
            "type": "t_string_storage"
          }
        ],
        "numberOfBytes": "128"
      },
      "t_struct(QuestionAnswerDetails)832_storage": {
        "encoding": "inplace",
        "label": "struct QuestionAndAnswer.QuestionAnswerDetails",
        "members": [
          {
            "astId": 823,
            "contract": "contracts/QuestionAndAnswer.sol:QuestionAndAnswer",
            "label": "question",
            "offset": 0,
            "slot": "0",
            "type": "t_string_storage"
          },
          {
            "astId": 825,
            "contract": "contracts/QuestionAndAnswer.sol:QuestionAndAnswer",
            "label": "answer",
            "offset": 0,
            "slot": "1",
            "type": "t_string_storage"
          },
          {
            "astId": 827,
            "contract": "contracts/QuestionAndAnswer.sol:QuestionAndAnswer",
            "label": "answered",
            "offset": 0,
            "slot": "2",
            "type": "t_bool"
          },
          {
            "astId": 829,
            "contract": "contracts/QuestionAndAnswer.sol:QuestionAndAnswer",
            "label": "bounty",
            "offset": 0,
            "slot": "3",
            "type": "t_uint256"
          },
          {
            "astId": 831,
            "contract": "contracts/QuestionAndAnswer.sol:QuestionAndAnswer",
            "label": "id",
            "offset": 0,
            "slot": "4",
            "type": "t_uint256"
          }
        ],
        "numberOfBytes": "160"
      },
      "t_uint256": {
        "encoding": "inplace",
        "label": "uint256",
        "numberOfBytes": "32"
      }
    }
  }
}