{
  "address": "0x5aF74EA4c2Ce9Fc128B908D999786C94bAD5671D",
  "abi": [
    {
      "inputs": [
        {
          "internalType": "address",
          "name": "USDCAddress",
          "type": "address"
        }
      ],
      "stateMutability": "nonpayable",
      "type": "constructor"
    },
    {
      "inputs": [],
      "name": "QuestionAndAnswer__AllowanceTooLow",
      "type": "error"
    },
    {
      "inputs": [],
      "name": "QuestionAndAnswer__BountyTooLow",
      "type": "error"
    },
    {
      "inputs": [],
      "name": "QuestionAndAnswer__CannotCancelQuestion",
      "type": "error"
    },
    {
      "inputs": [],
      "name": "QuestionAndAnswer__InvalidExpiry",
      "type": "error"
    },
    {
      "inputs": [],
      "name": "QuestionAndAnswer__InvalidPriceMinimum",
      "type": "error"
    },
    {
      "inputs": [],
      "name": "QuestionAndAnswer__NothingToWithdraw",
      "type": "error"
    },
    {
      "inputs": [],
      "name": "QuestionAndAnswer__QuestionAlreadyAnswered",
      "type": "error"
    },
    {
      "inputs": [],
      "name": "QuestionAndAnswer__QuestionDoesNotExist",
      "type": "error"
    },
    {
      "inputs": [],
      "name": "QuestionAndAnswer__QuestionHasExpired",
      "type": "error"
    },
    {
      "anonymous": false,
      "inputs": [
        {
          "indexed": true,
          "internalType": "address",
          "name": "questioner",
          "type": "address"
        },
        {
          "indexed": true,
          "internalType": "address",
          "name": "answerer",
          "type": "address"
        },
        {
          "indexed": true,
          "internalType": "uint256",
          "name": "questionId",
          "type": "uint256"
        },
        {
          "indexed": false,
          "internalType": "uint256",
          "name": "bounty",
          "type": "uint256"
        },
        {
          "indexed": false,
          "internalType": "uint256",
          "name": "date",
          "type": "uint256"
        },
        {
          "indexed": false,
          "internalType": "string",
          "name": "answer",
          "type": "string"
        }
      ],
      "name": "QuestionAnswered",
      "type": "event"
    },
    {
      "anonymous": false,
      "inputs": [
        {
          "indexed": true,
          "internalType": "address",
          "name": "questioner",
          "type": "address"
        },
        {
          "indexed": true,
          "internalType": "address",
          "name": "answerer",
          "type": "address"
        },
        {
          "indexed": true,
          "internalType": "uint256",
          "name": "questionId",
          "type": "uint256"
        },
        {
          "indexed": false,
          "internalType": "uint256",
          "name": "bounty",
          "type": "uint256"
        },
        {
          "indexed": false,
          "internalType": "uint256",
          "name": "date",
          "type": "uint256"
        },
        {
          "indexed": false,
          "internalType": "string",
          "name": "question",
          "type": "string"
        },
        {
          "indexed": false,
          "internalType": "uint256",
          "name": "expiryDate",
          "type": "uint256"
        }
      ],
      "name": "QuestionAsked",
      "type": "event"
    },
    {
      "anonymous": false,
      "inputs": [
        {
          "indexed": true,
          "internalType": "address",
          "name": "questioner",
          "type": "address"
        },
        {
          "indexed": true,
          "internalType": "address",
          "name": "answerer",
          "type": "address"
        },
        {
          "indexed": true,
          "internalType": "uint256",
          "name": "questionId",
          "type": "uint256"
        },
        {
          "indexed": false,
          "internalType": "uint256",
          "name": "date",
          "type": "uint256"
        }
      ],
      "name": "QuestionCanceled",
      "type": "event"
    },
    {
      "anonymous": false,
      "inputs": [
        {
          "indexed": true,
          "internalType": "address",
          "name": "withdrawalBy",
          "type": "address"
        },
        {
          "indexed": true,
          "internalType": "uint256",
          "name": "amount",
          "type": "uint256"
        }
      ],
      "name": "Withdraw",
      "type": "event"
    },
    {
      "inputs": [
        {
          "internalType": "address",
          "name": "questioner",
          "type": "address"
        },
        {
          "internalType": "uint256",
          "name": "questionId",
          "type": "uint256"
        },
        {
          "internalType": "string",
          "name": "answer",
          "type": "string"
        }
      ],
      "name": "answerQuestion",
      "outputs": [],
      "stateMutability": "nonpayable",
      "type": "function"
    },
    {
      "inputs": [
        {
          "internalType": "address",
          "name": "",
          "type": "address"
        }
      ],
      "name": "answererToSettings",
      "outputs": [
        {
          "internalType": "bool",
          "name": "populated",
          "type": "bool"
        },
        {
          "internalType": "uint256",
          "name": "priceMinimum",
          "type": "uint256"
        },
        {
          "internalType": "uint256",
          "name": "withdrawableAmount",
          "type": "uint256"
        },
        {
          "internalType": "string",
          "name": "interests",
          "type": "string"
        }
      ],
      "stateMutability": "view",
      "type": "function"
    },
    {
      "inputs": [],
      "name": "answererWithdraw",
      "outputs": [],
      "stateMutability": "nonpayable",
      "type": "function"
    },
    {
      "inputs": [
        {
          "internalType": "string",
          "name": "question",
          "type": "string"
        },
        {
          "internalType": "address",
          "name": "answerer",
          "type": "address"
        },
        {
          "internalType": "uint256",
          "name": "bounty",
          "type": "uint256"
        },
        {
          "internalType": "uint256",
          "name": "expiryDate",
          "type": "uint256"
        }
      ],
      "name": "askQuestion",
      "outputs": [],
      "stateMutability": "nonpayable",
      "type": "function"
    },
    {
      "inputs": [
        {
          "internalType": "address",
          "name": "answerer",
          "type": "address"
        },
        {
          "internalType": "uint256",
          "name": "questionId",
          "type": "uint256"
        }
      ],
      "name": "cancelQuestion",
      "outputs": [],
      "stateMutability": "nonpayable",
      "type": "function"
    },
    {
      "inputs": [
        {
          "internalType": "address",
          "name": "questioner",
          "type": "address"
        },
        {
          "internalType": "address",
          "name": "answerer",
          "type": "address"
        },
        {
          "internalType": "uint256",
          "name": "index",
          "type": "uint256"
        }
      ],
      "name": "getQuestionerToAnswererToQAs",
      "outputs": [
        {
          "internalType": "string",
          "name": "",
          "type": "string"
        },
        {
          "internalType": "string",
          "name": "",
          "type": "string"
        },
        {
          "internalType": "bool",
          "name": "",
          "type": "bool"
        },
        {
          "internalType": "uint256",
          "name": "",
          "type": "uint256"
        },
        {
          "internalType": "uint256",
          "name": "",
          "type": "uint256"
        },
        {
          "internalType": "uint256",
          "name": "",
          "type": "uint256"
        }
      ],
      "stateMutability": "view",
      "type": "function"
    },
    {
      "inputs": [
        {
          "internalType": "uint256",
          "name": "priceMinimum",
          "type": "uint256"
        },
        {
          "internalType": "string",
          "name": "interests",
          "type": "string"
        }
      ],
      "name": "setAnswererSettings",
      "outputs": [],
      "stateMutability": "nonpayable",
      "type": "function"
    }
  ],
  "transactionHash": "0xb0b50698667ec4e8df26844a899f40b87de50a293e303e78c66c2dea2b4fd76c",
  "args": [
    "0xd77cFfca19aec21aca9F0E38743740EfD548b2A4"
  ],
  "numDeployments": 8,
  "solcInputHash": "c7c67c3260388ac2a5e35a37a52f38cb",
  "bytecode": "0x60a06040523480156200001157600080fd5b50604051620021ca380380620021ca8339818101604052810190620000379190620000dc565b8073ffffffffffffffffffffffffffffffffffffffff1660808173ffffffffffffffffffffffffffffffffffffffff1681525050506200010e565b600080fd5b600073ffffffffffffffffffffffffffffffffffffffff82169050919050565b6000620000a48262000077565b9050919050565b620000b68162000097565b8114620000c257600080fd5b50565b600081519050620000d681620000ab565b92915050565b600060208284031215620000f557620000f462000072565b5b60006200010584828501620000c5565b91505092915050565b60805161209262000138600039600081816101f1015281816106dc0152610f2901526120926000f3fe608060405234801561001057600080fd5b506004361061007d5760003560e01c80637b74b8331161005b5780637b74b833146100c457806380751c1d146100e0578063e2913c6b146100fc578063fc5c82981461012f5761007d565b8063018070f814610082578063043a8d461461008c5780630e18ab05146100a8575b600080fd5b61008a610164565b005b6100a660048036038101906100a191906118fc565b6102f3565b005b6100c260048036038101906100bd91906119a1565b61057f565b005b6100de60048036038101906100d99190611a29565b610c9d565b005b6100fa60048036038101906100f59190611a9d565b61103b565b005b61011660048036038101906101119190611afd565b61116c565b6040516101269493929190611bed565b60405180910390f35b61014960048036038101906101449190611c39565b611231565b60405161015b96959493929190611c8c565b60405180910390f35b60008060003373ffffffffffffffffffffffffffffffffffffffff1673ffffffffffffffffffffffffffffffffffffffff168152602001908152602001600020905060008160020154116101e4576040517f803b3bd600000000000000000000000000000000000000000000000000000000815260040160405180910390fd5b60008160020154905060007f000000000000000000000000000000000000000000000000000000000000000090508073ffffffffffffffffffffffffffffffffffffffff1663a9059cbb33846040518363ffffffff1660e01b815260040161024d929190611d0a565b602060405180830381600087803b15801561026757600080fd5b505af115801561027b573d6000803e3d6000fd5b505050506040513d601f19601f8201168201806040525081019061029f9190611d5f565b5060008360020181905550813373ffffffffffffffffffffffffffffffffffffffff167f884edad9ce6fa2440d8a54cc123490eb96d2768479d49ff9c7366125a942436460405160405180910390a3505050565b6000600160003373ffffffffffffffffffffffffffffffffffffffff1673ffffffffffffffffffffffffffffffffffffffff16815260200190815260200160002060008473ffffffffffffffffffffffffffffffffffffffff1673ffffffffffffffffffffffffffffffffffffffff1681526020019081526020016000209050818180549050116103af576040517e4095f600000000000000000000000000000000000000000000000000000000815260040160405180910390fd5b8082815481106103c2576103c1611d8c565b5b906000526020600020906006020160020160009054906101000a900460ff1615610418576040517f894c1a4700000000000000000000000000000000000000000000000000000000815260040160405180910390fd5b4281838154811061042c5761042b611d8c565b5b90600052602060002090600602016005015411610475576040517f858c426000000000000000000000000000000000000000000000000000000000815260040160405180910390fd5b61012c426104839190611dea565b81838154811061049657610495611d8c565b5b906000526020600020906006020160050154116104df576040517f513c0f6300000000000000000000000000000000000000000000000000000000815260040160405180910390fd5b6001426104ec9190611e40565b8183815481106104ff576104fe611d8c565b5b906000526020600020906006020160050181905550818373ffffffffffffffffffffffffffffffffffffffff163373ffffffffffffffffffffffffffffffffffffffff167f1aae613553f1b3a322d39d736a4d220aade6b1fdd44e7dd0b20c17329bab6d96426040516105729190611e74565b60405180910390a4505050565b60008060008573ffffffffffffffffffffffffffffffffffffffff1673ffffffffffffffffffffffffffffffffffffffff1681526020019081526020016000206040518060800160405290816000820160009054906101000a900460ff16151515158152602001600182015481526020016002820154815260200160038201805461060990611ebe565b80601f016020809104026020016040519081016040528092919081815260200182805461063590611ebe565b80156106825780601f1061065757610100808354040283529160200191610682565b820191906000526020600020905b81548152906001019060200180831161066557829003601f168201915b5050505050815250509050806000015180156106a15750806020015183105b156106d8576040517f97c28dc200000000000000000000000000000000000000000000000000000000815260040160405180910390fd5b60007f00000000000000000000000000000000000000000000000000000000000000009050838173ffffffffffffffffffffffffffffffffffffffff1663dd62ed3e33306040518363ffffffff1660e01b8152600401610739929190611ef0565b60206040518083038186803b15801561075157600080fd5b505afa158015610765573d6000803e3d6000fd5b505050506040513d601f19601f820116820180604052508101906107899190611f2e565b10156107c1576040517fcefbc98e00000000000000000000000000000000000000000000000000000000815260040160405180910390fd5b4283116107fa576040517f6498958000000000000000000000000000000000000000000000000000000000815260040160405180910390fd5b6000600160003373ffffffffffffffffffffffffffffffffffffffff1673ffffffffffffffffffffffffffffffffffffffff16815260200190815260200160002060008773ffffffffffffffffffffffffffffffffffffffff1673ffffffffffffffffffffffffffffffffffffffff168152602001908152602001600020805480602002602001604051908101604052809291908181526020016000905b82821015610a2757838290600052602060002090600602016040518060c00160405290816000820180546108cb90611ebe565b80601f01602080910402602001604051908101604052809291908181526020018280546108f790611ebe565b80156109445780601f1061091957610100808354040283529160200191610944565b820191906000526020600020905b81548152906001019060200180831161092757829003601f168201915b5050505050815260200160018201805461095d90611ebe565b80601f016020809104026020016040519081016040528092919081815260200182805461098990611ebe565b80156109d65780601f106109ab576101008083540402835291602001916109d6565b820191906000526020600020905b8154815290600101906020018083116109b957829003601f168201915b505050505081526020016002820160009054906101000a900460ff16151515158152602001600382015481526020016004820154815260200160058201548152505081526020019060010190610898565b50505050905060006040518060c001604052808a8a8080601f016020809104026020016040519081016040528093929190818152602001838380828437600081840152601f19601f820116905080830192505050505050508152602001604051806020016040528060008152508152602001600015158152602001878152602001600081526020018681525090506000825114610b005760018260018451610acf9190611e40565b81518110610ae057610adf611d8c565b5b602002602001015160800151610af69190611dea565b8160800181815250505b600160003373ffffffffffffffffffffffffffffffffffffffff1673ffffffffffffffffffffffffffffffffffffffff16815260200190815260200160002060008873ffffffffffffffffffffffffffffffffffffffff1673ffffffffffffffffffffffffffffffffffffffff1681526020019081526020016000208190806001815401808255809150506001900390600052602060002090600602016000909190919091506000820151816000019080519060200190610bc2929190611735565b506020820151816001019080519060200190610bdf929190611735565b5060408201518160020160006101000a81548160ff021916908315150217905550606082015181600301556080820151816004015560a08201518160050155505080608001518773ffffffffffffffffffffffffffffffffffffffff163373ffffffffffffffffffffffffffffffffffffffff167f6039043947aae59803ebb3eb6e07aeca45585cf98f551135b2412e8f25b4fadd89428e8e8c604051610c8a959493929190611f97565b60405180910390a4505050505050505050565b6000600160008673ffffffffffffffffffffffffffffffffffffffff1673ffffffffffffffffffffffffffffffffffffffff16815260200190815260200160002060003373ffffffffffffffffffffffffffffffffffffffff1673ffffffffffffffffffffffffffffffffffffffff168152602001908152602001600020905083818054905011610d59576040517e4095f600000000000000000000000000000000000000000000000000000000815260040160405180910390fd5b808481548110610d6c57610d6b611d8c565b5b906000526020600020906006020160020160009054906101000a900460ff1615610dc2576040517f894c1a4700000000000000000000000000000000000000000000000000000000815260040160405180910390fd5b42818581548110610dd657610dd5611d8c565b5b90600052602060002090600602016005015411610e1f576040517f858c426000000000000000000000000000000000000000000000000000000000815260040160405180910390fd5b8282828681548110610e3457610e33611d8c565b5b90600052602060002090600602016001019190610e529291906117bb565b506001818581548110610e6857610e67611d8c565b5b906000526020600020906006020160020160006101000a81548160ff0219169083151502179055506000818581548110610ea557610ea4611d8c565b5b9060005260206000209060060201600301549050843373ffffffffffffffffffffffffffffffffffffffff168773ffffffffffffffffffffffffffffffffffffffff167f6bd44ed2453a257d2a02f8437dd1009cb4790852a0581d9d2214324c0feb30bf84428989604051610f1d9493929190611fe5565b60405180910390a460007f000000000000000000000000000000000000000000000000000000000000000090508073ffffffffffffffffffffffffffffffffffffffff166323b872dd8830856040518463ffffffff1660e01b8152600401610f8793929190612025565b602060405180830381600087803b158015610fa157600080fd5b505af1158015610fb5573d6000803e3d6000fd5b505050506040513d601f19601f82011682018060405250810190610fd99190611d5f565b50816000803373ffffffffffffffffffffffffffffffffffffffff1673ffffffffffffffffffffffffffffffffffffffff168152602001908152602001600020600201600082825461102b9190611dea565b9250508190555050505050505050565b6000831015611076576040517ffcc286a000000000000000000000000000000000000000000000000000000000815260040160405180910390fd5b60016000803373ffffffffffffffffffffffffffffffffffffffff1673ffffffffffffffffffffffffffffffffffffffff16815260200190815260200160002060000160006101000a81548160ff021916908315150217905550826000803373ffffffffffffffffffffffffffffffffffffffff1673ffffffffffffffffffffffffffffffffffffffff1681526020019081526020016000206001018190555081816000803373ffffffffffffffffffffffffffffffffffffffff1673ffffffffffffffffffffffffffffffffffffffff16815260200190815260200160002060030191906111669291906117bb565b50505050565b60006020528060005260406000206000915090508060000160009054906101000a900460ff16908060010154908060020154908060030180546111ae90611ebe565b80601f01602080910402602001604051908101604052809291908181526020018280546111da90611ebe565b80156112275780601f106111fc57610100808354040283529160200191611227565b820191906000526020600020905b81548152906001019060200180831161120a57829003601f168201915b5050505050905084565b606080600080600080600160008a73ffffffffffffffffffffffffffffffffffffffff1673ffffffffffffffffffffffffffffffffffffffff16815260200190815260200160002060008973ffffffffffffffffffffffffffffffffffffffff1673ffffffffffffffffffffffffffffffffffffffff16815260200190815260200160002087815481106112c8576112c7611d8c565b5b9060005260206000209060060201600001600160008b73ffffffffffffffffffffffffffffffffffffffff1673ffffffffffffffffffffffffffffffffffffffff16815260200190815260200160002060008a73ffffffffffffffffffffffffffffffffffffffff1673ffffffffffffffffffffffffffffffffffffffff168152602001908152602001600020888154811061136757611366611d8c565b5b9060005260206000209060060201600101600160008c73ffffffffffffffffffffffffffffffffffffffff1673ffffffffffffffffffffffffffffffffffffffff16815260200190815260200160002060008b73ffffffffffffffffffffffffffffffffffffffff1673ffffffffffffffffffffffffffffffffffffffff168152602001908152602001600020898154811061140657611405611d8c565b5b906000526020600020906006020160020160009054906101000a900460ff16600160008d73ffffffffffffffffffffffffffffffffffffffff1673ffffffffffffffffffffffffffffffffffffffff16815260200190815260200160002060008c73ffffffffffffffffffffffffffffffffffffffff1673ffffffffffffffffffffffffffffffffffffffff1681526020019081526020016000208a815481106114b3576114b2611d8c565b5b906000526020600020906006020160030154600160008e73ffffffffffffffffffffffffffffffffffffffff1673ffffffffffffffffffffffffffffffffffffffff16815260200190815260200160002060008d73ffffffffffffffffffffffffffffffffffffffff1673ffffffffffffffffffffffffffffffffffffffff1681526020019081526020016000208b8154811061155357611552611d8c565b5b906000526020600020906006020160040154600160008f73ffffffffffffffffffffffffffffffffffffffff1673ffffffffffffffffffffffffffffffffffffffff16815260200190815260200160002060008e73ffffffffffffffffffffffffffffffffffffffff1673ffffffffffffffffffffffffffffffffffffffff1681526020019081526020016000208c815481106115f3576115f2611d8c565b5b90600052602060002090600602016005015485805461161190611ebe565b80601f016020809104026020016040519081016040528092919081815260200182805461163d90611ebe565b801561168a5780601f1061165f5761010080835404028352916020019161168a565b820191906000526020600020905b81548152906001019060200180831161166d57829003601f168201915b5050505050955084805461169d90611ebe565b80601f01602080910402602001604051908101604052809291908181526020018280546116c990611ebe565b80156117165780601f106116eb57610100808354040283529160200191611716565b820191906000526020600020905b8154815290600101906020018083116116f957829003601f168201915b5050505050945095509550955095509550955093975093979195509350565b82805461174190611ebe565b90600052602060002090601f01602090048101928261176357600085556117aa565b82601f1061177c57805160ff19168380011785556117aa565b828001600101855582156117aa579182015b828111156117a957825182559160200191906001019061178e565b5b5090506117b79190611841565b5090565b8280546117c790611ebe565b90600052602060002090601f0160209004810192826117e95760008555611830565b82601f1061180257803560ff1916838001178555611830565b82800160010185558215611830579182015b8281111561182f578235825591602001919060010190611814565b5b50905061183d9190611841565b5090565b5b8082111561185a576000816000905550600101611842565b5090565b600080fd5b600080fd5b600073ffffffffffffffffffffffffffffffffffffffff82169050919050565b600061189382611868565b9050919050565b6118a381611888565b81146118ae57600080fd5b50565b6000813590506118c08161189a565b92915050565b6000819050919050565b6118d9816118c6565b81146118e457600080fd5b50565b6000813590506118f6816118d0565b92915050565b600080604083850312156119135761191261185e565b5b6000611921858286016118b1565b9250506020611932858286016118e7565b9150509250929050565b600080fd5b600080fd5b600080fd5b60008083601f8401126119615761196061193c565b5b8235905067ffffffffffffffff81111561197e5761197d611941565b5b60208301915083600182028301111561199a57611999611946565b5b9250929050565b6000806000806000608086880312156119bd576119bc61185e565b5b600086013567ffffffffffffffff8111156119db576119da611863565b5b6119e78882890161194b565b955095505060206119fa888289016118b1565b9350506040611a0b888289016118e7565b9250506060611a1c888289016118e7565b9150509295509295909350565b60008060008060608587031215611a4357611a4261185e565b5b6000611a51878288016118b1565b9450506020611a62878288016118e7565b935050604085013567ffffffffffffffff811115611a8357611a82611863565b5b611a8f8782880161194b565b925092505092959194509250565b600080600060408486031215611ab657611ab561185e565b5b6000611ac4868287016118e7565b935050602084013567ffffffffffffffff811115611ae557611ae4611863565b5b611af18682870161194b565b92509250509250925092565b600060208284031215611b1357611b1261185e565b5b6000611b21848285016118b1565b91505092915050565b60008115159050919050565b611b3f81611b2a565b82525050565b611b4e816118c6565b82525050565b600081519050919050565b600082825260208201905092915050565b60005b83811015611b8e578082015181840152602081019050611b73565b83811115611b9d576000848401525b50505050565b6000601f19601f8301169050919050565b6000611bbf82611b54565b611bc98185611b5f565b9350611bd9818560208601611b70565b611be281611ba3565b840191505092915050565b6000608082019050611c026000830187611b36565b611c0f6020830186611b45565b611c1c6040830185611b45565b8181036060830152611c2e8184611bb4565b905095945050505050565b600080600060608486031215611c5257611c5161185e565b5b6000611c60868287016118b1565b9350506020611c71868287016118b1565b9250506040611c82868287016118e7565b9150509250925092565b600060c0820190508181036000830152611ca68189611bb4565b90508181036020830152611cba8188611bb4565b9050611cc96040830187611b36565b611cd66060830186611b45565b611ce36080830185611b45565b611cf060a0830184611b45565b979650505050505050565b611d0481611888565b82525050565b6000604082019050611d1f6000830185611cfb565b611d2c6020830184611b45565b9392505050565b611d3c81611b2a565b8114611d4757600080fd5b50565b600081519050611d5981611d33565b92915050565b600060208284031215611d7557611d7461185e565b5b6000611d8384828501611d4a565b91505092915050565b7f4e487b7100000000000000000000000000000000000000000000000000000000600052603260045260246000fd5b7f4e487b7100000000000000000000000000000000000000000000000000000000600052601160045260246000fd5b6000611df5826118c6565b9150611e00836118c6565b9250827fffffffffffffffffffffffffffffffffffffffffffffffffffffffffffffffff03821115611e3557611e34611dbb565b5b828201905092915050565b6000611e4b826118c6565b9150611e56836118c6565b925082821015611e6957611e68611dbb565b5b828203905092915050565b6000602082019050611e896000830184611b45565b92915050565b7f4e487b7100000000000000000000000000000000000000000000000000000000600052602260045260246000fd5b60006002820490506001821680611ed657607f821691505b60208210811415611eea57611ee9611e8f565b5b50919050565b6000604082019050611f056000830185611cfb565b611f126020830184611cfb565b9392505050565b600081519050611f28816118d0565b92915050565b600060208284031215611f4457611f4361185e565b5b6000611f5284828501611f19565b91505092915050565b82818337600083830152505050565b6000611f768385611b5f565b9350611f83838584611f5b565b611f8c83611ba3565b840190509392505050565b6000608082019050611fac6000830188611b45565b611fb96020830187611b45565b8181036040830152611fcc818587611f6a565b9050611fdb6060830184611b45565b9695505050505050565b6000606082019050611ffa6000830187611b45565b6120076020830186611b45565b818103604083015261201a818486611f6a565b905095945050505050565b600060608201905061203a6000830186611cfb565b6120476020830185611cfb565b6120546040830184611b45565b94935050505056fea264697066735822122097e0e042cebfcf683390e83d6687b7d6df588ff967c8b226b03c4c3ed2bb11f064736f6c63430008090033",
  "devdoc": {
    "kind": "dev",
    "methods": {},
    "version": 1
  },
  "userdoc": {
    "kind": "user",
    "methods": {},
    "version": 1
  },
  "storageLayout": {
    "storage": [
      {
        "astId": 836,
        "contract": "contracts/QuestionAndAnswer.sol:QuestionAndAnswer",
        "label": "answererToSettings",
        "offset": 0,
        "slot": "0",
        "type": "t_mapping(t_address,t_struct(AnswererSettings)818_storage)"
      },
      {
        "astId": 844,
        "contract": "contracts/QuestionAndAnswer.sol:QuestionAndAnswer",
        "label": "questionerToAnswererToQAs",
        "offset": 0,
        "slot": "1",
        "type": "t_mapping(t_address,t_mapping(t_address,t_array(t_struct(QuestionAnswerDetails)831_storage)dyn_storage))"
      }
    ],
    "types": {
      "t_address": {
        "encoding": "inplace",
        "label": "address",
        "numberOfBytes": "20"
      },
      "t_array(t_struct(QuestionAnswerDetails)831_storage)dyn_storage": {
        "base": "t_struct(QuestionAnswerDetails)831_storage",
        "encoding": "dynamic_array",
        "label": "struct QuestionAndAnswer.QuestionAnswerDetails[]",
        "numberOfBytes": "32"
      },
      "t_bool": {
        "encoding": "inplace",
        "label": "bool",
        "numberOfBytes": "1"
      },
      "t_mapping(t_address,t_array(t_struct(QuestionAnswerDetails)831_storage)dyn_storage)": {
        "encoding": "mapping",
        "key": "t_address",
        "label": "mapping(address => struct QuestionAndAnswer.QuestionAnswerDetails[])",
        "numberOfBytes": "32",
        "value": "t_array(t_struct(QuestionAnswerDetails)831_storage)dyn_storage"
      },
      "t_mapping(t_address,t_mapping(t_address,t_array(t_struct(QuestionAnswerDetails)831_storage)dyn_storage))": {
        "encoding": "mapping",
        "key": "t_address",
        "label": "mapping(address => mapping(address => struct QuestionAndAnswer.QuestionAnswerDetails[]))",
        "numberOfBytes": "32",
        "value": "t_mapping(t_address,t_array(t_struct(QuestionAnswerDetails)831_storage)dyn_storage)"
      },
      "t_mapping(t_address,t_struct(AnswererSettings)818_storage)": {
        "encoding": "mapping",
        "key": "t_address",
        "label": "mapping(address => struct QuestionAndAnswer.AnswererSettings)",
        "numberOfBytes": "32",
        "value": "t_struct(AnswererSettings)818_storage"
      },
      "t_string_storage": {
        "encoding": "bytes",
        "label": "string",
        "numberOfBytes": "32"
      },
      "t_struct(AnswererSettings)818_storage": {
        "encoding": "inplace",
        "label": "struct QuestionAndAnswer.AnswererSettings",
        "members": [
          {
            "astId": 811,
            "contract": "contracts/QuestionAndAnswer.sol:QuestionAndAnswer",
            "label": "populated",
            "offset": 0,
            "slot": "0",
            "type": "t_bool"
          },
          {
            "astId": 813,
            "contract": "contracts/QuestionAndAnswer.sol:QuestionAndAnswer",
            "label": "priceMinimum",
            "offset": 0,
            "slot": "1",
            "type": "t_uint256"
          },
          {
            "astId": 815,
            "contract": "contracts/QuestionAndAnswer.sol:QuestionAndAnswer",
            "label": "withdrawableAmount",
            "offset": 0,
            "slot": "2",
            "type": "t_uint256"
          },
          {
            "astId": 817,
            "contract": "contracts/QuestionAndAnswer.sol:QuestionAndAnswer",
            "label": "interests",
            "offset": 0,
            "slot": "3",
            "type": "t_string_storage"
          }
        ],
        "numberOfBytes": "128"
      },
      "t_struct(QuestionAnswerDetails)831_storage": {
        "encoding": "inplace",
        "label": "struct QuestionAndAnswer.QuestionAnswerDetails",
        "members": [
          {
            "astId": 820,
            "contract": "contracts/QuestionAndAnswer.sol:QuestionAndAnswer",
            "label": "question",
            "offset": 0,
            "slot": "0",
            "type": "t_string_storage"
          },
          {
            "astId": 822,
            "contract": "contracts/QuestionAndAnswer.sol:QuestionAndAnswer",
            "label": "answer",
            "offset": 0,
            "slot": "1",
            "type": "t_string_storage"
          },
          {
            "astId": 824,
            "contract": "contracts/QuestionAndAnswer.sol:QuestionAndAnswer",
            "label": "answered",
            "offset": 0,
            "slot": "2",
            "type": "t_bool"
          },
          {
            "astId": 826,
            "contract": "contracts/QuestionAndAnswer.sol:QuestionAndAnswer",
            "label": "bounty",
            "offset": 0,
            "slot": "3",
            "type": "t_uint256"
          },
          {
            "astId": 828,
            "contract": "contracts/QuestionAndAnswer.sol:QuestionAndAnswer",
            "label": "id",
            "offset": 0,
            "slot": "4",
            "type": "t_uint256"
          },
          {
            "astId": 830,
            "contract": "contracts/QuestionAndAnswer.sol:QuestionAndAnswer",
            "label": "expiryDate",
            "offset": 0,
            "slot": "5",
            "type": "t_uint256"
          }
        ],
        "numberOfBytes": "192"
      },
      "t_uint256": {
        "encoding": "inplace",
        "label": "uint256",
        "numberOfBytes": "32"
      }
    }
  }
}