{
  "address": "0x64d5c6907df12BD636c44771C446eD4e581D3824",
  "abi": [
    {
      "inputs": [],
      "name": "QuestionAndAnswer__AllowanceTooLow",
      "type": "error"
    },
    {
      "inputs": [],
      "name": "QuestionAndAnswer__BountyTooLow",
      "type": "error"
    },
    {
      "inputs": [],
      "name": "QuestionAndAnswer__InvalidPriceMinimum",
      "type": "error"
    },
    {
      "inputs": [],
      "name": "QuestionAndAnswer__QuestionDoesNotExist",
      "type": "error"
    },
    {
      "anonymous": false,
      "inputs": [
        {
          "indexed": true,
          "internalType": "address",
          "name": "questioner",
          "type": "address"
        },
        {
          "indexed": true,
          "internalType": "address",
          "name": "answerer",
          "type": "address"
        },
        {
          "indexed": true,
          "internalType": "uint256",
          "name": "questionId",
          "type": "uint256"
        },
        {
          "indexed": false,
          "internalType": "uint256",
          "name": "bounty",
          "type": "uint256"
        }
      ],
      "name": "QuestionAnswered",
      "type": "event"
    },
    {
      "anonymous": false,
      "inputs": [
        {
          "indexed": true,
          "internalType": "address",
          "name": "questioner",
          "type": "address"
        },
        {
          "indexed": true,
          "internalType": "address",
          "name": "answerer",
          "type": "address"
        },
        {
          "indexed": true,
          "internalType": "uint256",
          "name": "questionId",
          "type": "uint256"
        },
        {
          "indexed": false,
          "internalType": "uint256",
          "name": "bounty",
          "type": "uint256"
        }
      ],
      "name": "QuestionAsked",
      "type": "event"
    },
    {
      "anonymous": false,
      "inputs": [
        {
          "indexed": true,
          "internalType": "address",
          "name": "questioner",
          "type": "address"
        },
        {
          "indexed": true,
          "internalType": "address",
          "name": "answerer",
          "type": "address"
        },
        {
          "indexed": true,
          "internalType": "uint256",
          "name": "questionId",
          "type": "uint256"
        }
      ],
      "name": "QuestionCanceled",
      "type": "event"
    },
    {
      "anonymous": false,
      "inputs": [
        {
          "indexed": true,
          "internalType": "address",
          "name": "questioner",
          "type": "address"
        },
        {
          "indexed": true,
          "internalType": "address",
          "name": "answerer",
          "type": "address"
        },
        {
          "indexed": true,
          "internalType": "uint256",
          "name": "questionId",
          "type": "uint256"
        }
      ],
      "name": "QuestionExpired",
      "type": "event"
    },
    {
      "inputs": [
        {
          "internalType": "address",
          "name": "questioner",
          "type": "address"
        },
        {
          "internalType": "uint256",
          "name": "questionId",
          "type": "uint256"
        },
        {
          "internalType": "string",
          "name": "answer",
          "type": "string"
        }
      ],
      "name": "answerQuestion",
      "outputs": [],
      "stateMutability": "nonpayable",
      "type": "function"
    },
    {
      "inputs": [
        {
          "internalType": "address",
          "name": "",
          "type": "address"
        }
      ],
      "name": "answererToSettings",
      "outputs": [
        {
          "internalType": "bool",
          "name": "populated",
          "type": "bool"
        },
        {
          "internalType": "uint256",
          "name": "priceMinimum",
          "type": "uint256"
        }
      ],
      "stateMutability": "view",
      "type": "function"
    },
    {
      "inputs": [
        {
          "internalType": "string",
          "name": "question",
          "type": "string"
        },
        {
          "internalType": "address",
          "name": "answerer",
          "type": "address"
        },
        {
          "internalType": "uint256",
          "name": "bounty",
          "type": "uint256"
        }
      ],
      "name": "askQuestion",
      "outputs": [],
      "stateMutability": "nonpayable",
      "type": "function"
    },
    {
      "inputs": [
        {
          "internalType": "address",
          "name": "questioner",
          "type": "address"
        },
        {
          "internalType": "address",
          "name": "answerer",
          "type": "address"
        },
        {
          "internalType": "uint256",
          "name": "index",
          "type": "uint256"
        }
      ],
      "name": "getQuestionerToAnswererToQAs",
      "outputs": [
        {
          "internalType": "string",
          "name": "",
          "type": "string"
        },
        {
          "internalType": "string",
          "name": "",
          "type": "string"
        },
        {
          "internalType": "uint256",
          "name": "",
          "type": "uint256"
        }
      ],
      "stateMutability": "view",
      "type": "function"
    },
    {
      "inputs": [
        {
          "internalType": "uint256",
          "name": "priceMinimum",
          "type": "uint256"
        }
      ],
      "name": "setAnswererSettings",
      "outputs": [],
      "stateMutability": "nonpayable",
      "type": "function"
    },
    {
      "inputs": [],
      "name": "version",
      "outputs": [
        {
          "internalType": "uint256",
          "name": "",
          "type": "uint256"
        }
      ],
      "stateMutability": "pure",
      "type": "function"
    }
  ],
  "transactionHash": "0x0c0936792088e5987adff7592dfec0b26e5c3a1cabbd287a8cb5b0ad48b6ae41",
  "args": [],
  "numDeployments": 3,
  "solcInputHash": "fb4d62abb1c8751f0f7931b15b5f7194",
  "bytecode": "0x608060405234801561001057600080fd5b506112fb806100206000396000f3fe608060405234801561001057600080fd5b50600436106100625760003560e01c806354fd4d50146100675780637b74b83314610085578063b43cb12f146100a1578063e2913c6b146100bd578063ee3619a6146100ee578063fc5c82981461010a575b600080fd5b61006f61013c565b60405161007c9190610d37565b60405180910390f35b61009f600480360381019061009a9190610e4b565b610141565b005b6100bb60048036038101906100b69190610ebf565b610238565b005b6100d760048036038101906100d29190610eec565b6102fe565b6040516100e5929190610f34565b60405180910390f35b61010860048036038101906101039190610f5d565b61032f565b005b610124600480360381019061011f9190610fd1565b6108eb565b604051610133939291906110bd565b60405180910390f35b600090565b6000600160008673ffffffffffffffffffffffffffffffffffffffff1673ffffffffffffffffffffffffffffffffffffffff16815260200190815260200160002060003373ffffffffffffffffffffffffffffffffffffffff1673ffffffffffffffffffffffffffffffffffffffff1681526020019081526020016000209050838180549050116101fd576040517e4095f600000000000000000000000000000000000000000000000000000000815260040160405180910390fd5b828282868154811061021257610211611102565b5b90600052602060002090600302016001019190610230929190610bf5565b505050505050565b60008111610272576040517ffcc286a000000000000000000000000000000000000000000000000000000000815260040160405180910390fd5b60006040518060400160405280600115158152602001838152509050806000803373ffffffffffffffffffffffffffffffffffffffff1673ffffffffffffffffffffffffffffffffffffffff16815260200190815260200160002060008201518160000160006101000a81548160ff021916908315150217905550602082015181600101559050505050565b60006020528060005260406000206000915090508060000160009054906101000a900460ff16908060010154905082565b60008060008473ffffffffffffffffffffffffffffffffffffffff1673ffffffffffffffffffffffffffffffffffffffff1681526020019081526020016000206040518060400160405290816000820160009054906101000a900460ff161515151581526020016001820154815250509050806000015180156103b55750806020015182105b156103ec576040517f97c28dc200000000000000000000000000000000000000000000000000000000815260040160405180910390fd5b600073d77cffca19aec21aca9f0e38743740efd548b2a49050828173ffffffffffffffffffffffffffffffffffffffff1663dd62ed3e33306040518363ffffffff1660e01b8152600401610441929190611140565b60206040518083038186803b15801561045957600080fd5b505afa15801561046d573d6000803e3d6000fd5b505050506040513d601f19601f82011682018060405250810190610491919061117e565b10156104c9576040517fcefbc98e00000000000000000000000000000000000000000000000000000000815260040160405180910390fd5b6000600160003373ffffffffffffffffffffffffffffffffffffffff1673ffffffffffffffffffffffffffffffffffffffff16815260200190815260200160002060008673ffffffffffffffffffffffffffffffffffffffff1673ffffffffffffffffffffffffffffffffffffffff168152602001908152602001600020805480602002602001604051908101604052809291908181526020016000905b828210156106c7578382906000526020600020906003020160405180606001604052908160008201805461059a906111da565b80601f01602080910402602001604051908101604052809291908181526020018280546105c6906111da565b80156106135780601f106105e857610100808354040283529160200191610613565b820191906000526020600020905b8154815290600101906020018083116105f657829003601f168201915b5050505050815260200160018201805461062c906111da565b80601f0160208091040260200160405190810160405280929190818152602001828054610658906111da565b80156106a55780601f1061067a576101008083540402835291602001916106a5565b820191906000526020600020905b81548152906001019060200180831161068857829003601f168201915b5050505050815260200160028201548152505081526020019060010190610567565b5050505090506000604051806060016040528089898080601f016020809104026020016040519081016040528093929190818152602001838380828437600081840152601f19601f82011690508083019250505050505050815260200160405180602001604052806000815250815260200160008152509050600082511461078b576001826001845161075a919061123b565b8151811061076b5761076a611102565b5b602002602001015160400151610781919061126f565b8160400181815250505b600160003373ffffffffffffffffffffffffffffffffffffffff1673ffffffffffffffffffffffffffffffffffffffff16815260200190815260200160002060008773ffffffffffffffffffffffffffffffffffffffff1673ffffffffffffffffffffffffffffffffffffffff168152602001908152602001600020819080600181540180825580915050600190039060005260206000209060030201600090919091909150600082015181600001908051906020019061084d929190610c7b565b50602082015181600101908051906020019061086a929190610c7b565b5060408201518160020155505080604001518673ffffffffffffffffffffffffffffffffffffffff163373ffffffffffffffffffffffffffffffffffffffff167f7c06cc8ed32f1e7244e986506144ead891dc160c915d8da5a03b19aa49684472886040516108d99190610d37565b60405180910390a45050505050505050565b6060806000600160008773ffffffffffffffffffffffffffffffffffffffff1673ffffffffffffffffffffffffffffffffffffffff16815260200190815260200160002060008673ffffffffffffffffffffffffffffffffffffffff1673ffffffffffffffffffffffffffffffffffffffff168152602001908152602001600020848154811061097e5761097d611102565b5b9060005260206000209060030201600001600160008873ffffffffffffffffffffffffffffffffffffffff1673ffffffffffffffffffffffffffffffffffffffff16815260200190815260200160002060008773ffffffffffffffffffffffffffffffffffffffff1673ffffffffffffffffffffffffffffffffffffffff1681526020019081526020016000208581548110610a1d57610a1c611102565b5b9060005260206000209060030201600101600160008973ffffffffffffffffffffffffffffffffffffffff1673ffffffffffffffffffffffffffffffffffffffff16815260200190815260200160002060008873ffffffffffffffffffffffffffffffffffffffff1673ffffffffffffffffffffffffffffffffffffffff1681526020019081526020016000208681548110610abc57610abb611102565b5b906000526020600020906003020160020154828054610ada906111da565b80601f0160208091040260200160405190810160405280929190818152602001828054610b06906111da565b8015610b535780601f10610b2857610100808354040283529160200191610b53565b820191906000526020600020905b815481529060010190602001808311610b3657829003601f168201915b50505050509250818054610b66906111da565b80601f0160208091040260200160405190810160405280929190818152602001828054610b92906111da565b8015610bdf5780601f10610bb457610100808354040283529160200191610bdf565b820191906000526020600020905b815481529060010190602001808311610bc257829003601f168201915b5050505050915092509250925093509350939050565b828054610c01906111da565b90600052602060002090601f016020900481019282610c235760008555610c6a565b82601f10610c3c57803560ff1916838001178555610c6a565b82800160010185558215610c6a579182015b82811115610c69578235825591602001919060010190610c4e565b5b509050610c779190610d01565b5090565b828054610c87906111da565b90600052602060002090601f016020900481019282610ca95760008555610cf0565b82601f10610cc257805160ff1916838001178555610cf0565b82800160010185558215610cf0579182015b82811115610cef578251825591602001919060010190610cd4565b5b509050610cfd9190610d01565b5090565b5b80821115610d1a576000816000905550600101610d02565b5090565b6000819050919050565b610d3181610d1e565b82525050565b6000602082019050610d4c6000830184610d28565b92915050565b600080fd5b600080fd5b600073ffffffffffffffffffffffffffffffffffffffff82169050919050565b6000610d8782610d5c565b9050919050565b610d9781610d7c565b8114610da257600080fd5b50565b600081359050610db481610d8e565b92915050565b610dc381610d1e565b8114610dce57600080fd5b50565b600081359050610de081610dba565b92915050565b600080fd5b600080fd5b600080fd5b60008083601f840112610e0b57610e0a610de6565b5b8235905067ffffffffffffffff811115610e2857610e27610deb565b5b602083019150836001820283011115610e4457610e43610df0565b5b9250929050565b60008060008060608587031215610e6557610e64610d52565b5b6000610e7387828801610da5565b9450506020610e8487828801610dd1565b935050604085013567ffffffffffffffff811115610ea557610ea4610d57565b5b610eb187828801610df5565b925092505092959194509250565b600060208284031215610ed557610ed4610d52565b5b6000610ee384828501610dd1565b91505092915050565b600060208284031215610f0257610f01610d52565b5b6000610f1084828501610da5565b91505092915050565b60008115159050919050565b610f2e81610f19565b82525050565b6000604082019050610f496000830185610f25565b610f566020830184610d28565b9392505050565b60008060008060608587031215610f7757610f76610d52565b5b600085013567ffffffffffffffff811115610f9557610f94610d57565b5b610fa187828801610df5565b94509450506020610fb487828801610da5565b9250506040610fc587828801610dd1565b91505092959194509250565b600080600060608486031215610fea57610fe9610d52565b5b6000610ff886828701610da5565b935050602061100986828701610da5565b925050604061101a86828701610dd1565b9150509250925092565b600081519050919050565b600082825260208201905092915050565b60005b8381101561105e578082015181840152602081019050611043565b8381111561106d576000848401525b50505050565b6000601f19601f8301169050919050565b600061108f82611024565b611099818561102f565b93506110a9818560208601611040565b6110b281611073565b840191505092915050565b600060608201905081810360008301526110d78186611084565b905081810360208301526110eb8185611084565b90506110fa6040830184610d28565b949350505050565b7f4e487b7100000000000000000000000000000000000000000000000000000000600052603260045260246000fd5b61113a81610d7c565b82525050565b60006040820190506111556000830185611131565b6111626020830184611131565b9392505050565b60008151905061117881610dba565b92915050565b60006020828403121561119457611193610d52565b5b60006111a284828501611169565b91505092915050565b7f4e487b7100000000000000000000000000000000000000000000000000000000600052602260045260246000fd5b600060028204905060018216806111f257607f821691505b60208210811415611206576112056111ab565b5b50919050565b7f4e487b7100000000000000000000000000000000000000000000000000000000600052601160045260246000fd5b600061124682610d1e565b915061125183610d1e565b9250828210156112645761126361120c565b5b828203905092915050565b600061127a82610d1e565b915061128583610d1e565b9250827fffffffffffffffffffffffffffffffffffffffffffffffffffffffffffffffff038211156112ba576112b961120c565b5b82820190509291505056fea264697066735822122083f93ef5b6fce921295fbdb13c9cd5acba3fd904d27e1ec54a92e8d95c11449664736f6c63430008090033",
  "devdoc": {
    "kind": "dev",
    "methods": {},
    "version": 1
  },
  "userdoc": {
    "kind": "user",
    "methods": {},
    "version": 1
  },
  "storageLayout": {
    "storage": [
      {
        "astId": 818,
        "contract": "contracts/QuestionAndAnswer.sol:QuestionAndAnswer",
        "label": "answererToSettings",
        "offset": 0,
        "slot": "0",
        "type": "t_mapping(t_address,t_struct(AnswererSettings)806_storage)"
      },
      {
        "astId": 826,
        "contract": "contracts/QuestionAndAnswer.sol:QuestionAndAnswer",
        "label": "questionerToAnswererToQAs",
        "offset": 0,
        "slot": "1",
        "type": "t_mapping(t_address,t_mapping(t_address,t_array(t_struct(QuestionAnswerDetails)813_storage)dyn_storage))"
      }
    ],
    "types": {
      "t_address": {
        "encoding": "inplace",
        "label": "address",
        "numberOfBytes": "20"
      },
      "t_array(t_struct(QuestionAnswerDetails)813_storage)dyn_storage": {
        "base": "t_struct(QuestionAnswerDetails)813_storage",
        "encoding": "dynamic_array",
        "label": "struct QuestionAndAnswer.QuestionAnswerDetails[]",
        "numberOfBytes": "32"
      },
      "t_bool": {
        "encoding": "inplace",
        "label": "bool",
        "numberOfBytes": "1"
      },
      "t_mapping(t_address,t_array(t_struct(QuestionAnswerDetails)813_storage)dyn_storage)": {
        "encoding": "mapping",
        "key": "t_address",
        "label": "mapping(address => struct QuestionAndAnswer.QuestionAnswerDetails[])",
        "numberOfBytes": "32",
        "value": "t_array(t_struct(QuestionAnswerDetails)813_storage)dyn_storage"
      },
      "t_mapping(t_address,t_mapping(t_address,t_array(t_struct(QuestionAnswerDetails)813_storage)dyn_storage))": {
        "encoding": "mapping",
        "key": "t_address",
        "label": "mapping(address => mapping(address => struct QuestionAndAnswer.QuestionAnswerDetails[]))",
        "numberOfBytes": "32",
        "value": "t_mapping(t_address,t_array(t_struct(QuestionAnswerDetails)813_storage)dyn_storage)"
      },
      "t_mapping(t_address,t_struct(AnswererSettings)806_storage)": {
        "encoding": "mapping",
        "key": "t_address",
        "label": "mapping(address => struct QuestionAndAnswer.AnswererSettings)",
        "numberOfBytes": "32",
        "value": "t_struct(AnswererSettings)806_storage"
      },
      "t_string_storage": {
        "encoding": "bytes",
        "label": "string",
        "numberOfBytes": "32"
      },
      "t_struct(AnswererSettings)806_storage": {
        "encoding": "inplace",
        "label": "struct QuestionAndAnswer.AnswererSettings",
        "members": [
          {
            "astId": 803,
            "contract": "contracts/QuestionAndAnswer.sol:QuestionAndAnswer",
            "label": "populated",
            "offset": 0,
            "slot": "0",
            "type": "t_bool"
          },
          {
            "astId": 805,
            "contract": "contracts/QuestionAndAnswer.sol:QuestionAndAnswer",
            "label": "priceMinimum",
            "offset": 0,
            "slot": "1",
            "type": "t_uint256"
          }
        ],
        "numberOfBytes": "64"
      },
      "t_struct(QuestionAnswerDetails)813_storage": {
        "encoding": "inplace",
        "label": "struct QuestionAndAnswer.QuestionAnswerDetails",
        "members": [
          {
            "astId": 808,
            "contract": "contracts/QuestionAndAnswer.sol:QuestionAndAnswer",
            "label": "question",
            "offset": 0,
            "slot": "0",
            "type": "t_string_storage"
          },
          {
            "astId": 810,
            "contract": "contracts/QuestionAndAnswer.sol:QuestionAndAnswer",
            "label": "answer",
            "offset": 0,
            "slot": "1",
            "type": "t_string_storage"
          },
          {
            "astId": 812,
            "contract": "contracts/QuestionAndAnswer.sol:QuestionAndAnswer",
            "label": "id",
            "offset": 0,
            "slot": "2",
            "type": "t_uint256"
          }
        ],
        "numberOfBytes": "96"
      },
      "t_uint256": {
        "encoding": "inplace",
        "label": "uint256",
        "numberOfBytes": "32"
      }
    }
  }
}