{
  "address": "0x3fb514397898a3BFaeBaf276190Bd34EF31DD91A",
  "abi": [
    {
      "inputs": [],
      "name": "QuestionAndAnswer__AllowanceTooLow",
      "type": "error"
    },
    {
      "inputs": [],
      "name": "QuestionAndAnswer__BountyTooLow",
      "type": "error"
    },
    {
      "inputs": [],
      "name": "QuestionAndAnswer__InvalidPriceMinimum",
      "type": "error"
    },
    {
      "inputs": [],
      "name": "QuestionAndAnswer__NothingToWithdraw",
      "type": "error"
    },
    {
      "inputs": [],
      "name": "QuestionAndAnswer__QuestionAlreadyAnswered",
      "type": "error"
    },
    {
      "inputs": [],
      "name": "QuestionAndAnswer__QuestionDoesNotExist",
      "type": "error"
    },
    {
      "anonymous": false,
      "inputs": [
        {
          "indexed": true,
          "internalType": "address",
          "name": "questioner",
          "type": "address"
        },
        {
          "indexed": true,
          "internalType": "address",
          "name": "answerer",
          "type": "address"
        },
        {
          "indexed": true,
          "internalType": "uint256",
          "name": "questionId",
          "type": "uint256"
        },
        {
          "indexed": false,
          "internalType": "uint256",
          "name": "bounty",
          "type": "uint256"
        },
        {
          "indexed": false,
          "internalType": "uint256",
          "name": "date",
          "type": "uint256"
        },
        {
          "indexed": false,
          "internalType": "string",
          "name": "answer",
          "type": "string"
        }
      ],
      "name": "QuestionAnswered",
      "type": "event"
    },
    {
      "anonymous": false,
      "inputs": [
        {
          "indexed": true,
          "internalType": "address",
          "name": "questioner",
          "type": "address"
        },
        {
          "indexed": true,
          "internalType": "address",
          "name": "answerer",
          "type": "address"
        },
        {
          "indexed": true,
          "internalType": "uint256",
          "name": "questionId",
          "type": "uint256"
        },
        {
          "indexed": false,
          "internalType": "uint256",
          "name": "bounty",
          "type": "uint256"
        },
        {
          "indexed": false,
          "internalType": "uint256",
          "name": "date",
          "type": "uint256"
        },
        {
          "indexed": false,
          "internalType": "string",
          "name": "question",
          "type": "string"
        }
      ],
      "name": "QuestionAsked",
      "type": "event"
    },
    {
      "anonymous": false,
      "inputs": [
        {
          "indexed": true,
          "internalType": "address",
          "name": "questioner",
          "type": "address"
        },
        {
          "indexed": true,
          "internalType": "address",
          "name": "answerer",
          "type": "address"
        },
        {
          "indexed": true,
          "internalType": "uint256",
          "name": "questionId",
          "type": "uint256"
        },
        {
          "indexed": false,
          "internalType": "uint256",
          "name": "date",
          "type": "uint256"
        }
      ],
      "name": "QuestionCanceled",
      "type": "event"
    },
    {
      "anonymous": false,
      "inputs": [
        {
          "indexed": true,
          "internalType": "address",
          "name": "questioner",
          "type": "address"
        },
        {
          "indexed": true,
          "internalType": "address",
          "name": "answerer",
          "type": "address"
        },
        {
          "indexed": true,
          "internalType": "uint256",
          "name": "questionId",
          "type": "uint256"
        },
        {
          "indexed": false,
          "internalType": "uint256",
          "name": "date",
          "type": "uint256"
        }
      ],
      "name": "QuestionExpired",
      "type": "event"
    },
    {
      "anonymous": false,
      "inputs": [
        {
          "indexed": true,
          "internalType": "address",
          "name": "withdrawalBy",
          "type": "address"
        },
        {
          "indexed": true,
          "internalType": "uint256",
          "name": "amount",
          "type": "uint256"
        }
      ],
      "name": "Withdraw",
      "type": "event"
    },
    {
      "inputs": [
        {
          "internalType": "address",
          "name": "questioner",
          "type": "address"
        },
        {
          "internalType": "uint256",
          "name": "questionId",
          "type": "uint256"
        },
        {
          "internalType": "string",
          "name": "answer",
          "type": "string"
        }
      ],
      "name": "answerQuestion",
      "outputs": [],
      "stateMutability": "nonpayable",
      "type": "function"
    },
    {
      "inputs": [
        {
          "internalType": "address",
          "name": "",
          "type": "address"
        }
      ],
      "name": "answererToSettings",
      "outputs": [
        {
          "internalType": "bool",
          "name": "populated",
          "type": "bool"
        },
        {
          "internalType": "uint256",
          "name": "priceMinimum",
          "type": "uint256"
        },
        {
          "internalType": "uint256",
          "name": "withdrawableAmount",
          "type": "uint256"
        },
        {
          "internalType": "string",
          "name": "interests",
          "type": "string"
        }
      ],
      "stateMutability": "view",
      "type": "function"
    },
    {
      "inputs": [],
      "name": "answererWithdraw",
      "outputs": [],
      "stateMutability": "nonpayable",
      "type": "function"
    },
    {
      "inputs": [
        {
          "internalType": "string",
          "name": "question",
          "type": "string"
        },
        {
          "internalType": "address",
          "name": "answerer",
          "type": "address"
        },
        {
          "internalType": "uint256",
          "name": "bounty",
          "type": "uint256"
        }
      ],
      "name": "askQuestion",
      "outputs": [],
      "stateMutability": "nonpayable",
      "type": "function"
    },
    {
      "inputs": [
        {
          "internalType": "address",
          "name": "questioner",
          "type": "address"
        },
        {
          "internalType": "address",
          "name": "answerer",
          "type": "address"
        },
        {
          "internalType": "uint256",
          "name": "index",
          "type": "uint256"
        }
      ],
      "name": "getQuestionerToAnswererToQAs",
      "outputs": [
        {
          "internalType": "string",
          "name": "",
          "type": "string"
        },
        {
          "internalType": "string",
          "name": "",
          "type": "string"
        },
        {
          "internalType": "bool",
          "name": "",
          "type": "bool"
        },
        {
          "internalType": "uint256",
          "name": "",
          "type": "uint256"
        },
        {
          "internalType": "uint256",
          "name": "",
          "type": "uint256"
        }
      ],
      "stateMutability": "view",
      "type": "function"
    },
    {
      "inputs": [
        {
          "internalType": "uint256",
          "name": "priceMinimum",
          "type": "uint256"
        },
        {
          "internalType": "string",
          "name": "interests",
          "type": "string"
        }
      ],
      "name": "setAnswererSettings",
      "outputs": [],
      "stateMutability": "nonpayable",
      "type": "function"
    }
  ],
  "transactionHash": "0x2224b439cafd09b9732ec76830d7fd2ffd2eab49e08da68356d832d079462d3b",
  "args": [],
  "numDeployments": 6,
  "solcInputHash": "01a82cf7ef3a1041275bb63a31133085",
  "bytecode": "0x608060405234801561001057600080fd5b50611b87806100206000396000f3fe608060405234801561001057600080fd5b50600436106100625760003560e01c8063018070f8146100675780637b74b8331461007157806380751c1d1461008d578063e2913c6b146100a9578063ee3619a6146100dc578063fc5c8298146100f8575b600080fd5b61006f61012c565b005b61008b60048036038101906100869190611521565b6102af565b005b6100a760048036038101906100a29190611595565b6105e4565b005b6100c360048036038101906100be91906115f5565b610714565b6040516100d394939291906116e5565b60405180910390f35b6100f660048036038101906100f19190611731565b6107d9565b005b610112600480360381019061010d91906117a5565b610e95565b6040516101239594939291906117f8565b60405180910390f35b60008060003373ffffffffffffffffffffffffffffffffffffffff1673ffffffffffffffffffffffffffffffffffffffff168152602001908152602001600020905060008160020154116101ac576040517f803b3bd600000000000000000000000000000000000000000000000000000000815260040160405180910390fd5b600081600201549050600073d77cffca19aec21aca9f0e38743740efd548b2a490508073ffffffffffffffffffffffffffffffffffffffff1663a9059cbb33846040518363ffffffff1660e01b8152600401610209929190611868565b602060405180830381600087803b15801561022357600080fd5b505af1158015610237573d6000803e3d6000fd5b505050506040513d601f19601f8201168201806040525081019061025b91906118bd565b5060008360020181905550813373ffffffffffffffffffffffffffffffffffffffff167f884edad9ce6fa2440d8a54cc123490eb96d2768479d49ff9c7366125a942436460405160405180910390a3505050565b6000600160008673ffffffffffffffffffffffffffffffffffffffff1673ffffffffffffffffffffffffffffffffffffffff16815260200190815260200160002060003373ffffffffffffffffffffffffffffffffffffffff1673ffffffffffffffffffffffffffffffffffffffff16815260200190815260200160002090508381805490501161036b576040517e4095f600000000000000000000000000000000000000000000000000000000815260040160405180910390fd5b80848154811061037e5761037d6118ea565b5b906000526020600020906005020160020160009054906101000a900460ff16156103d4576040517f894c1a4700000000000000000000000000000000000000000000000000000000815260040160405180910390fd5b82828286815481106103e9576103e86118ea565b5b906000526020600020906005020160010191906104079291906112f5565b50600181858154811061041d5761041c6118ea565b5b906000526020600020906005020160020160006101000a81548160ff021916908315150217905550600081858154811061045a576104596118ea565b5b9060005260206000209060050201600301549050843373ffffffffffffffffffffffffffffffffffffffff168773ffffffffffffffffffffffffffffffffffffffff167f6bd44ed2453a257d2a02f8437dd1009cb4790852a0581d9d2214324c0feb30bf844289896040516104d29493929190611955565b60405180910390a4600073d77cffca19aec21aca9f0e38743740efd548b2a490508073ffffffffffffffffffffffffffffffffffffffff166323b872dd8830856040518463ffffffff1660e01b815260040161053093929190611995565b602060405180830381600087803b15801561054a57600080fd5b505af115801561055e573d6000803e3d6000fd5b505050506040513d601f19601f8201168201806040525081019061058291906118bd565b50816000803373ffffffffffffffffffffffffffffffffffffffff1673ffffffffffffffffffffffffffffffffffffffff16815260200190815260200160002060020160008282546105d491906119fb565b9250508190555050505050505050565b6000831161061e576040517ffcc286a000000000000000000000000000000000000000000000000000000000815260040160405180910390fd5b60016000803373ffffffffffffffffffffffffffffffffffffffff1673ffffffffffffffffffffffffffffffffffffffff16815260200190815260200160002060000160006101000a81548160ff021916908315150217905550826000803373ffffffffffffffffffffffffffffffffffffffff1673ffffffffffffffffffffffffffffffffffffffff1681526020019081526020016000206001018190555081816000803373ffffffffffffffffffffffffffffffffffffffff1673ffffffffffffffffffffffffffffffffffffffff168152602001908152602001600020600301919061070e9291906112f5565b50505050565b60006020528060005260406000206000915090508060000160009054906101000a900460ff169080600101549080600201549080600301805461075690611a80565b80601f016020809104026020016040519081016040528092919081815260200182805461078290611a80565b80156107cf5780601f106107a4576101008083540402835291602001916107cf565b820191906000526020600020905b8154815290600101906020018083116107b257829003601f168201915b5050505050905084565b60008060008473ffffffffffffffffffffffffffffffffffffffff1673ffffffffffffffffffffffffffffffffffffffff1681526020019081526020016000206040518060800160405290816000820160009054906101000a900460ff16151515158152602001600182015481526020016002820154815260200160038201805461086390611a80565b80601f016020809104026020016040519081016040528092919081815260200182805461088f90611a80565b80156108dc5780601f106108b1576101008083540402835291602001916108dc565b820191906000526020600020905b8154815290600101906020018083116108bf57829003601f168201915b5050505050815250509050806000015180156108fb5750806020015182105b15610932576040517f97c28dc200000000000000000000000000000000000000000000000000000000815260040160405180910390fd5b600073d77cffca19aec21aca9f0e38743740efd548b2a49050828173ffffffffffffffffffffffffffffffffffffffff1663dd62ed3e33306040518363ffffffff1660e01b8152600401610987929190611ab2565b60206040518083038186803b15801561099f57600080fd5b505afa1580156109b3573d6000803e3d6000fd5b505050506040513d601f19601f820116820180604052508101906109d79190611af0565b1015610a0f576040517fcefbc98e00000000000000000000000000000000000000000000000000000000815260040160405180910390fd5b6000600160003373ffffffffffffffffffffffffffffffffffffffff1673ffffffffffffffffffffffffffffffffffffffff16815260200190815260200160002060008673ffffffffffffffffffffffffffffffffffffffff1673ffffffffffffffffffffffffffffffffffffffff168152602001908152602001600020805480602002602001604051908101604052809291908181526020016000905b82821015610c3257838290600052602060002090600502016040518060a0016040529081600082018054610ae090611a80565b80601f0160208091040260200160405190810160405280929190818152602001828054610b0c90611a80565b8015610b595780601f10610b2e57610100808354040283529160200191610b59565b820191906000526020600020905b815481529060010190602001808311610b3c57829003601f168201915b50505050508152602001600182018054610b7290611a80565b80601f0160208091040260200160405190810160405280929190818152602001828054610b9e90611a80565b8015610beb5780601f10610bc057610100808354040283529160200191610beb565b820191906000526020600020905b815481529060010190602001808311610bce57829003601f168201915b505050505081526020016002820160009054906101000a900460ff161515151581526020016003820154815260200160048201548152505081526020019060010190610aad565b50505050905060006040518060a0016040528089898080601f016020809104026020016040519081016040528093929190818152602001838380828437600081840152601f19601f820116905080830192505050505050508152602001604051806020016040528060008152508152602001600015158152602001868152602001600081525090506000825114610d055760018260018451610cd49190611b1d565b81518110610ce557610ce46118ea565b5b602002602001015160800151610cfb91906119fb565b8160800181815250505b600160003373ffffffffffffffffffffffffffffffffffffffff1673ffffffffffffffffffffffffffffffffffffffff16815260200190815260200160002060008773ffffffffffffffffffffffffffffffffffffffff1673ffffffffffffffffffffffffffffffffffffffff1681526020019081526020016000208190806001815401808255809150506001900390600052602060002090600502016000909190919091506000820151816000019080519060200190610dc792919061137b565b506020820151816001019080519060200190610de492919061137b565b5060408201518160020160006101000a81548160ff0219169083151502179055506060820151816003015560808201518160040155505080608001518673ffffffffffffffffffffffffffffffffffffffff163373ffffffffffffffffffffffffffffffffffffffff167fa566fb299bfa5cfd2a6124aa0dd36dfb2ff2fb4c63dd05d5d53c3be062882db288428d8d604051610e839493929190611955565b60405180910390a45050505050505050565b6060806000806000600160008973ffffffffffffffffffffffffffffffffffffffff1673ffffffffffffffffffffffffffffffffffffffff16815260200190815260200160002060008873ffffffffffffffffffffffffffffffffffffffff1673ffffffffffffffffffffffffffffffffffffffff1681526020019081526020016000208681548110610f2b57610f2a6118ea565b5b9060005260206000209060050201600001600160008a73ffffffffffffffffffffffffffffffffffffffff1673ffffffffffffffffffffffffffffffffffffffff16815260200190815260200160002060008973ffffffffffffffffffffffffffffffffffffffff1673ffffffffffffffffffffffffffffffffffffffff1681526020019081526020016000208781548110610fca57610fc96118ea565b5b9060005260206000209060050201600101600160008b73ffffffffffffffffffffffffffffffffffffffff1673ffffffffffffffffffffffffffffffffffffffff16815260200190815260200160002060008a73ffffffffffffffffffffffffffffffffffffffff1673ffffffffffffffffffffffffffffffffffffffff1681526020019081526020016000208881548110611069576110686118ea565b5b906000526020600020906005020160020160009054906101000a900460ff16600160008c73ffffffffffffffffffffffffffffffffffffffff1673ffffffffffffffffffffffffffffffffffffffff16815260200190815260200160002060008b73ffffffffffffffffffffffffffffffffffffffff1673ffffffffffffffffffffffffffffffffffffffff1681526020019081526020016000208981548110611116576111156118ea565b5b906000526020600020906005020160030154600160008d73ffffffffffffffffffffffffffffffffffffffff1673ffffffffffffffffffffffffffffffffffffffff16815260200190815260200160002060008c73ffffffffffffffffffffffffffffffffffffffff1673ffffffffffffffffffffffffffffffffffffffff1681526020019081526020016000208a815481106111b6576111b56118ea565b5b9060005260206000209060050201600401548480546111d490611a80565b80601f016020809104026020016040519081016040528092919081815260200182805461120090611a80565b801561124d5780601f106112225761010080835404028352916020019161124d565b820191906000526020600020905b81548152906001019060200180831161123057829003601f168201915b5050505050945083805461126090611a80565b80601f016020809104026020016040519081016040528092919081815260200182805461128c90611a80565b80156112d95780601f106112ae576101008083540402835291602001916112d9565b820191906000526020600020905b8154815290600101906020018083116112bc57829003601f168201915b5050505050935094509450945094509450939792965093509350565b82805461130190611a80565b90600052602060002090601f016020900481019282611323576000855561136a565b82601f1061133c57803560ff191683800117855561136a565b8280016001018555821561136a579182015b8281111561136957823582559160200191906001019061134e565b5b5090506113779190611401565b5090565b82805461138790611a80565b90600052602060002090601f0160209004810192826113a957600085556113f0565b82601f106113c257805160ff19168380011785556113f0565b828001600101855582156113f0579182015b828111156113ef5782518255916020019190600101906113d4565b5b5090506113fd9190611401565b5090565b5b8082111561141a576000816000905550600101611402565b5090565b600080fd5b600080fd5b600073ffffffffffffffffffffffffffffffffffffffff82169050919050565b600061145382611428565b9050919050565b61146381611448565b811461146e57600080fd5b50565b6000813590506114808161145a565b92915050565b6000819050919050565b61149981611486565b81146114a457600080fd5b50565b6000813590506114b681611490565b92915050565b600080fd5b600080fd5b600080fd5b60008083601f8401126114e1576114e06114bc565b5b8235905067ffffffffffffffff8111156114fe576114fd6114c1565b5b60208301915083600182028301111561151a576115196114c6565b5b9250929050565b6000806000806060858703121561153b5761153a61141e565b5b600061154987828801611471565b945050602061155a878288016114a7565b935050604085013567ffffffffffffffff81111561157b5761157a611423565b5b611587878288016114cb565b925092505092959194509250565b6000806000604084860312156115ae576115ad61141e565b5b60006115bc868287016114a7565b935050602084013567ffffffffffffffff8111156115dd576115dc611423565b5b6115e9868287016114cb565b92509250509250925092565b60006020828403121561160b5761160a61141e565b5b600061161984828501611471565b91505092915050565b60008115159050919050565b61163781611622565b82525050565b61164681611486565b82525050565b600081519050919050565b600082825260208201905092915050565b60005b8381101561168657808201518184015260208101905061166b565b83811115611695576000848401525b50505050565b6000601f19601f8301169050919050565b60006116b78261164c565b6116c18185611657565b93506116d1818560208601611668565b6116da8161169b565b840191505092915050565b60006080820190506116fa600083018761162e565b611707602083018661163d565b611714604083018561163d565b818103606083015261172681846116ac565b905095945050505050565b6000806000806060858703121561174b5761174a61141e565b5b600085013567ffffffffffffffff81111561176957611768611423565b5b611775878288016114cb565b9450945050602061178887828801611471565b9250506040611799878288016114a7565b91505092959194509250565b6000806000606084860312156117be576117bd61141e565b5b60006117cc86828701611471565b93505060206117dd86828701611471565b92505060406117ee868287016114a7565b9150509250925092565b600060a082019050818103600083015261181281886116ac565b9050818103602083015261182681876116ac565b9050611835604083018661162e565b611842606083018561163d565b61184f608083018461163d565b9695505050505050565b61186281611448565b82525050565b600060408201905061187d6000830185611859565b61188a602083018461163d565b9392505050565b61189a81611622565b81146118a557600080fd5b50565b6000815190506118b781611891565b92915050565b6000602082840312156118d3576118d261141e565b5b60006118e1848285016118a8565b91505092915050565b7f4e487b7100000000000000000000000000000000000000000000000000000000600052603260045260246000fd5b82818337600083830152505050565b60006119348385611657565b9350611941838584611919565b61194a8361169b565b840190509392505050565b600060608201905061196a600083018761163d565b611977602083018661163d565b818103604083015261198a818486611928565b905095945050505050565b60006060820190506119aa6000830186611859565b6119b76020830185611859565b6119c4604083018461163d565b949350505050565b7f4e487b7100000000000000000000000000000000000000000000000000000000600052601160045260246000fd5b6000611a0682611486565b9150611a1183611486565b9250827fffffffffffffffffffffffffffffffffffffffffffffffffffffffffffffffff03821115611a4657611a456119cc565b5b828201905092915050565b7f4e487b7100000000000000000000000000000000000000000000000000000000600052602260045260246000fd5b60006002820490506001821680611a9857607f821691505b60208210811415611aac57611aab611a51565b5b50919050565b6000604082019050611ac76000830185611859565b611ad46020830184611859565b9392505050565b600081519050611aea81611490565b92915050565b600060208284031215611b0657611b0561141e565b5b6000611b1484828501611adb565b91505092915050565b6000611b2882611486565b9150611b3383611486565b925082821015611b4657611b456119cc565b5b82820390509291505056fea2646970667358221220a2a771010564bb0866513c719a6fa6bc6e5ad423cd0414eec05ddd3ae203141564736f6c63430008090033",
  "devdoc": {
    "kind": "dev",
    "methods": {},
    "version": 1
  },
  "userdoc": {
    "kind": "user",
    "methods": {},
    "version": 1
  },
  "storageLayout": {
    "storage": [
      {
        "astId": 837,
        "contract": "contracts/QuestionAndAnswer.sol:QuestionAndAnswer",
        "label": "answererToSettings",
        "offset": 0,
        "slot": "0",
        "type": "t_mapping(t_address,t_struct(AnswererSettings)821_storage)"
      },
      {
        "astId": 845,
        "contract": "contracts/QuestionAndAnswer.sol:QuestionAndAnswer",
        "label": "questionerToAnswererToQAs",
        "offset": 0,
        "slot": "1",
        "type": "t_mapping(t_address,t_mapping(t_address,t_array(t_struct(QuestionAnswerDetails)832_storage)dyn_storage))"
      }
    ],
    "types": {
      "t_address": {
        "encoding": "inplace",
        "label": "address",
        "numberOfBytes": "20"
      },
      "t_array(t_struct(QuestionAnswerDetails)832_storage)dyn_storage": {
        "base": "t_struct(QuestionAnswerDetails)832_storage",
        "encoding": "dynamic_array",
        "label": "struct QuestionAndAnswer.QuestionAnswerDetails[]",
        "numberOfBytes": "32"
      },
      "t_bool": {
        "encoding": "inplace",
        "label": "bool",
        "numberOfBytes": "1"
      },
      "t_mapping(t_address,t_array(t_struct(QuestionAnswerDetails)832_storage)dyn_storage)": {
        "encoding": "mapping",
        "key": "t_address",
        "label": "mapping(address => struct QuestionAndAnswer.QuestionAnswerDetails[])",
        "numberOfBytes": "32",
        "value": "t_array(t_struct(QuestionAnswerDetails)832_storage)dyn_storage"
      },
      "t_mapping(t_address,t_mapping(t_address,t_array(t_struct(QuestionAnswerDetails)832_storage)dyn_storage))": {
        "encoding": "mapping",
        "key": "t_address",
        "label": "mapping(address => mapping(address => struct QuestionAndAnswer.QuestionAnswerDetails[]))",
        "numberOfBytes": "32",
        "value": "t_mapping(t_address,t_array(t_struct(QuestionAnswerDetails)832_storage)dyn_storage)"
      },
      "t_mapping(t_address,t_struct(AnswererSettings)821_storage)": {
        "encoding": "mapping",
        "key": "t_address",
        "label": "mapping(address => struct QuestionAndAnswer.AnswererSettings)",
        "numberOfBytes": "32",
        "value": "t_struct(AnswererSettings)821_storage"
      },
      "t_string_storage": {
        "encoding": "bytes",
        "label": "string",
        "numberOfBytes": "32"
      },
      "t_struct(AnswererSettings)821_storage": {
        "encoding": "inplace",
        "label": "struct QuestionAndAnswer.AnswererSettings",
        "members": [
          {
            "astId": 814,
            "contract": "contracts/QuestionAndAnswer.sol:QuestionAndAnswer",
            "label": "populated",
            "offset": 0,
            "slot": "0",
            "type": "t_bool"
          },
          {
            "astId": 816,
            "contract": "contracts/QuestionAndAnswer.sol:QuestionAndAnswer",
            "label": "priceMinimum",
            "offset": 0,
            "slot": "1",
            "type": "t_uint256"
          },
          {
            "astId": 818,
            "contract": "contracts/QuestionAndAnswer.sol:QuestionAndAnswer",
            "label": "withdrawableAmount",
            "offset": 0,
            "slot": "2",
            "type": "t_uint256"
          },
          {
            "astId": 820,
            "contract": "contracts/QuestionAndAnswer.sol:QuestionAndAnswer",
            "label": "interests",
            "offset": 0,
            "slot": "3",
            "type": "t_string_storage"
          }
        ],
        "numberOfBytes": "128"
      },
      "t_struct(QuestionAnswerDetails)832_storage": {
        "encoding": "inplace",
        "label": "struct QuestionAndAnswer.QuestionAnswerDetails",
        "members": [
          {
            "astId": 823,
            "contract": "contracts/QuestionAndAnswer.sol:QuestionAndAnswer",
            "label": "question",
            "offset": 0,
            "slot": "0",
            "type": "t_string_storage"
          },
          {
            "astId": 825,
            "contract": "contracts/QuestionAndAnswer.sol:QuestionAndAnswer",
            "label": "answer",
            "offset": 0,
            "slot": "1",
            "type": "t_string_storage"
          },
          {
            "astId": 827,
            "contract": "contracts/QuestionAndAnswer.sol:QuestionAndAnswer",
            "label": "answered",
            "offset": 0,
            "slot": "2",
            "type": "t_bool"
          },
          {
            "astId": 829,
            "contract": "contracts/QuestionAndAnswer.sol:QuestionAndAnswer",
            "label": "bounty",
            "offset": 0,
            "slot": "3",
            "type": "t_uint256"
          },
          {
            "astId": 831,
            "contract": "contracts/QuestionAndAnswer.sol:QuestionAndAnswer",
            "label": "id",
            "offset": 0,
            "slot": "4",
            "type": "t_uint256"
          }
        ],
        "numberOfBytes": "160"
      },
      "t_uint256": {
        "encoding": "inplace",
        "label": "uint256",
        "numberOfBytes": "32"
      }
    }
  }
}